S01100002E2E2F50726F746575732E73313966
S32D0000C000000000205DC2000011C3000017C300001DC3000023C3000029C3000000000000000000000000000073
S32D0000C028000000002FC3000035C30000000000003BC3000041C30000E9D90000F5D9000001DA00000DDA0000AC
S32D0000C05019DA000025DA000031DA00003DDA000049DA000055DA000061DA00006DDA000079DA000085DA000028
S32D0000C07891DA00009DDA0000A9DA0000B5DA0000C1DA0000CDDA0000D9DA0000E5DA0000F1DA0000FDDA000050
S32D0000C0A009DB000015DB000021DB00002DDB000039DB000045DB000051DB00005DDB000069DB000075DB00006E
S32D0000C0C881DB00008DDB000099DB0000A5DB0000B1DB0000BDDB0000C9DB0000D5DB0000E1DB0000EDDB000096
S32D0000C0F0F9DB0000114A010005DC000011DC00001DDC000029DC000035DC000041DC00004DDC000059DC00009A
S32D0000C11865DC000071DC00007DDC000089DC000095DC0000A1DC0000ADDC0000B9DC0000C5DC0000D1DC000053
S32D0000C140DDDC0000E9DC0000F5DC000001DD0000D11F01000DDD000019DD000025DD000031DD00003DDD0000A9
S32D0000C16849DD000055DD000061DD00006DDD000079DD000085DD000091DD00009DDD0000A9DD0000B5DD000011
S32D0000C190C1DD0000CDDD0000D9DD0000C91B0100911A01002D1B01006DD70000691C0100E5DD0000F1DD00004F
S32D0000C1B8FDDD00008895020000000020E0160000889502000000FF1F00000000E0160020900700000000FF1F42
S32D0000C1E00000000080B489B000AFF860B9607A60BB68FB61FB68BB6100237B617A697B689A420BD2BA69131DFB
S32D0000C208BB61FB69191DF96112681A607B6904337B61EFE700BF2437BD4680BC704780B485B000AF786039609E
S32D0000C2307B68FB600023BB60BA683B689A4208D2FB681A1DFA6000221A60BB680433BB60F2E700BF1437BD46FE
S32D0000C25880BC704780B586B000AF72B6234B4CF220521A80214B4DF628121A80204B4FF4E9721A801F4B7B615F
S32D0000C2807B691F4A934214D27B691A1D7A611B683B617B691A1D7A611B68FB607B691A1D7A611B68BB60BA68E9
S32D0000C2A8F9683869FFF79AFFE6E77B69134A93420ED27B691A1D7A611B68FB607B691A1D7A611B68BB60B9688B
S32D0000C2D0F868FFF7A8FFECE70B4B7B600B4A7B681A6014F077FB62B601F008FB01F0D8F8FEE700BF0E20054033
S32D0000C2F800200540BCC10000D4C10000E4C1000008ED00E000C0000080B400AFFEE780B400AFFEE780B400AFF4
S32D0000C320FEE780B400AFFEE780B400AFFEE780B400AFFEE780B400AFFEE780B400AFFEE780B400AFFEE780B426
S32D0000C34800AFFEE7FFFFFFFFFFFFFFFFFFFFFFFFFFFFFFFFFFFFFFFFFFFFFFFFFFFFFFFFFFFFFFFFFFFFFFFF57
S32D0000C370FFFFFFFFFFFFFFFFFFFFFFFFFFFFFFFFFFFFFFFFFFFFFFFFFFFFFFFFFFFFFFFFFFFFFFFFFFFFFFFFC7
S32D0000C398FFFFFFFFFFFFFFFFFFFFFFFFFFFFFFFFFFFFFFFFFFFFFFFFFFFFFFFFFFFFFFFFFFFFFFFFFFFFFFFF9F
S32D0000C3C0FFFFFFFFFFFFFFFFFFFFFFFFFFFFFFFFFFFFFFFFFFFFFFFFFFFFFFFFFFFFFFFFFFFFFFFFFFFFFFFF77
S32D0000C3E8FFFFFFFFFFFFFFFFFFFFFFFFFFFFFFFFFFFFFFFFFFFFFFFFFFFFFFFFFFFFFFFFFFFFFFFFFEFFFFFF50
S32D0000C44010B5054C237833B9044B13B10448AFF300800123237010BDE016002000000000F893020008B5034B7E
S32D0000C4681BB103490348AFF3008008BD00000000E4160020F8930200B0B582B000AF786039607B68D3E900015E
S32D0000C490124A3B681B011344D3E9002312F0A2FA02460B4614461D467B680833D3E900010A4A3B681B011344F4
S32D0000C4B80833D3E9002312F091FA02460B462046294612F0D5F802460B46104619460837BD46B0BD001700203E
S32D0000C4E080B582B000AF00237B607B68022B0ADC7B68DB00064A1344184601F0C3FC7B6801337B60F1E700BF28
S32D0000C5080837BD4680BD00BF3017002080B582B000AF7860FFF7E0FF786805F0B9F800BF0837BD4680BD0000D9
S32D0000C53090B589B000AF78600023FB61FB69022B24DCF9697868FFF79BFFC7E904014FF00002104BD7E90401E0
S32D0000C55812F044FA02460B461046194612F0D8FC0346FB60FB69DB00094A9C18F86812F021FE034619462046D8
S32D0000C58001F0C2FCFB690133FB61D7E700BF2437BD4690BD000059403017002080B588B000AFC7E90201C7E943
S32D0000C5A80023D7E9020110F05DFCD7E9002312F015FA02460B46C7E90423D7E9020110F0B7FBD7E9002312F068
S32D0000C5D009FA02460B46C7E9062307F110031846FFF7A6FF00BF2037BD4680BD0000000080B586B000AFF860FC
S32D0000C5F8C7E90023F86812F087F90FA3D3E9002312F0ECF902460B46104619464FF000020B4B12F00DFB0246B1
S32D0000C6200B46C7E90423D7E90023D7E90401FFF7B5FF00BF1837BD4680BD00BFAFF300806E861BF0F9210940E1
S32D0000C648008066400000000090B591B000AFC7E90201C7E90023464BD3E90023D7E9020112F004F802460B4619
S32D0000C670104619464FF000024FF0000311F0FCFF02460B461046194639A3D3E9002312F0A9F902460B461046CC
S32D0000C69819464FF00002374B12F0CAFA02460B46C7E90C23D7E90C0110F042FBD7E9002312F094F902460B46FF
S32D0000C6C0C7E90423D7E90C0110F0D0FBD7E9002312F088F902460B46C7E906230023FB63FB6B022B3DDC07F1E0
S32D0000C6E81003F96B1846FFF7C7FEC7E90A01D7E91423D7E90A0111F0BBFF02460B46104619464FF000021C4B66
S32D0000C71012F068F902460B461046194612F0FCFB03467B62FB6BDB00164A9C18786A12F045FD034619462046A2
S32D0000C73801F0E6FB7B6A002B05DD114AFB6B012142F8231005E00E4AFB6B4FF0FF3142F82310FB6B0133FB6348
S32D0000C760BEE700BF4437BD4690BD00BFAFF300806E861BF0F92109407817002000806640000059403017002064
S32D0000C78880170020B0B586B000AFC7E902017A60FB70BC68FB6883F000454FF00002174B2046294612F01AF9BE
S32D0000C7B002460B461046194612F0AEFB03463B6100237B617B69022B0FDC7B69DB000E4A9C18386912F0F2FC26
S32D0000C7D803461946204601F093FB7B6901337B61ECE7786804F054FFFB78002B02D0B86AFFF78CFE00BF183798
S32D0000C800BD46B0BD000059403017002000000000B0B588B002AFB9607B600346FB731346BB730FA3D3E9002389
S32D0000C828C7E90423FB7B83F00103DBB2002B05D03C697B6983F00045C7E90445BA7B7B6800931346BA68D7E971
S32D0000C8500401FFF79BFF00BF1837BD46B0BD00BF9A9999999999D93F80B584B000AFF860B960C7E90023D7E91D
S32D0000C8780023F868FFF7B8FEB86804F009FF3B7E002B02D0F869FFF741FE00BF1037BD4680BD000000000000B5
S32D0000C8A080B58EB000AFF860C7E900234FF000024B4BD7E9000112F095F802460B46C7E9082300237B63F86821
S32D0000C8C812F022F842A3D3E9002312F087F802460B46104619464FF00002404B12F0A8F902460B4610461946D6
S32D0000C8F010F0BCFA02460B46C7E90423F86812F007F835A3D3E9002312F06CF802460B46104619464FF00002E7
S32D0000C918324B12F08DF902460B461046194610F007FA02460B46C7E9062300233B633B6B022B20DC07F1100390
S32D0000C940396B1846FFF79CFDD7E9082312F04AF802460B461046194612F0DEFA0346002BB8BF5B427A6B13441D
S32D0000C9687B633B6B1E4A1344184605F0D7F93B6B01333B63DBE7D7E91023F868FFF734FE0023FB62FA6A7B6BBC
S32D0000C9909A421BDA0023FB620023BB62BB6A022B10DCBB6A104A1344184605F0A9F90346002BB8BF5B42FA6AF3
S32D0000C9B81344FB62BB6A0133BB62EBE7052004F067FEDFE7FFF788FD00BF3837BD4680BD6E861BF0F9210940C6
S32D0000C9E000004440008066404C1700200000000080B58AB000AFC7E900014FF000024FF00003D7E9000112F0E7
S32D0000CA0855FA0346002B04D04FF000024FF000035DE04FF00002344BC7E908232EA3D3E90023C7E906234FF046
S32D0000CA3000022F4BD7E9000112F064FA0346002B03D04FF000022B4B45E04FF000022A4BD7E9000112F038FA6D
S32D0000CA580346002B03D04FF00002264B37E04FF000024FF00003D7E9000112F047FA0346002B16D01AA3D3E946
S32D0000CA800023C7E90223D7E90023D7E9020111F0A9FF02460B461046194611A3D3E9002311F0EAFD02460B46DF
S32D0000CAA815E00FA3D3E90023C7E90423D7E90023D7E9040111F092FF02460B461046194605A3D3E9002311F0F3
S32D0000CAD0D1FD02460B46104619462837BD4680BD333333333333D33FEB51B81E85EBA13F000034400000F03F34
S32D0000CAF8000034C00000F0BF2DE9B043B2B002AFC7E90401C7E90223D7E93823D7E9380111F064FF02460B46B6
S32D0000CB20C7E922237C4A7D497D4808F0D3FEC7F884004FF000024FF00003C7E91E230023C7F8BC30D7F8BC3098
S32D0000CB48022B21DCD7F8BC30744A1344184605F0E5F8D7F8BC30DB00B83307F108021344A3F1A8014FF000023D
S32D0000CB704FF00003C1E900236B4AD7F8BC30012142F82310D7F8BC300133C7F8BC30D9E7664808F08BFD0346B8
S32D0000CB98184611F0CBFE02460B46C7E92C23614808F08EFD0346184611F0C0FE02460B46C7E92A235B4808F0EC
S32D0000CBC091FD0346184611F0B5FE02460B46C7E928235749D7E92C23C1E900235549D7E92A23C1E90023544939
S32D0000CBE8D7E92823C1E90023524B1B68C7F89C30D7F89C30002B1DD0D7F89C104FF000024FF00003C1E904231A
S32D0000CC10D7F89C104FF000024FF00003C1E90223D7F89C104FF000024FF00003C1E90623D7F89C301B68C7F87B
S32D0000CC389C30DDE704F068FDC7E91C01394808F031FD0346184611F071FE02460B46D7E92C0112F02BF9034665
S32D0000CC60002B1FD0314808F02FFD0346184611F061FE02460B46D7E92A0112F01BF90346002B0FD0294808F092
S32D0000CC882DFD0346184611F051FE02460B46D7E9280112F00BF90346002B01D1012300E00023002B5CD01F48AA
S32D0000CCB008F0FCFC0346184611F03CFE02460B46C7E92C23194808F0FFFC0346184611F031FE02460B46C7E978
S32D0000CCD82A23144808F002FD0346184611F026FE02460B46C7E92823D7E92C23124806F0B9FA4FF000024FF09C
S32D0000CD000003D7E92C0112F0DFF80346002B19D0FFF7E6FB41E100BFA8710200AC710200541B00204C170020DB
S32D0000CD2880170020341B00206817002070170020781700208C170020CC1A00209C49D7E92C23C1E900239B4954
S32D0000CD50D7E92A23C1E900239949D7E92823C1E90023984B1B68FB66934BD3E90023D7E9040111F07FFC024614
S32D0000CD780B46C7E918238F4BD3E90023D7E9020111F074FC02460B46C7E91623D7E91823D7E9180111F022FEED
S32D0000CDA002460B4690469946D7E91623D7E9160111F018FE02460B464046494611F05CFC02460B46C7E91423A9
S32D0000CDC87D4BD3E90023D7E9360111F04FFC02460B46C7E92423D7F89040D7F8943023F000454FF00002764B37
S32D0000CDF02046294612F086F80346002B2BD04FF00002724BD7E9240112F05EF80346002B0BD04FF000026E4BCD
S32D0000CE18D7E9240111F02CFC02460B46C7E92423D9E74FF00002664BD7E9240112F066F80346002B0AD04FF0CA
S32D0000CE400002634BD7E9240111F014FC02460B46C7E92423C3E7D7E92223D7E9140112F033F80346002B17D082
S32D0000CE68D7F890303B60D7F8943023F000437B60D7E90023D7E93A0112F040F80346002B06D05249524806F021
S32D0000CE90B4F9FFF725FB80E0D7E91401FFF7A8FD02460B46D7E93C0111F09CFD02460B46C7E912234FF00002F2
S32D0000CEB8484BD7E9240111F0BBFE02460B4610461946FFF791FD02460B46D7E93E0111F085FD02460B46C7E9E4
S32D0000CEE01023D7E91823D7E9160110F017F84FF00002354B11F076FD02460B461046194629A3D3E9002311F0E1
S32D0000CF0897FE02460B46C7E90E23314805F07FFED7E914232E4806F0A5F9D7E924232C4806F0A0F9D7E9102303
S32D0000CF30CDE90023D7E91223D7E90E01FFF788FB1F4BD3E90023D7E90E0111F093FB02460B46C7E91E2304F098
S32D0000CF58DBFBD7E91C2311F089FB02460B46C7E90C2311A3D3E90023D7E90C0111F0A8FF0346002B0CD0D7E9C1
S32D0000CF800C230BA1D1E9000111F074FB02460B461046194604F096FB50E6C037BD46BDE8B08300BFAFF30080C1
S32D0000CFA86E861BF0F92109407B14AE47E17A743F6817002070170020781700208C17002000806640008066C0E3
S32D0000CFD000807640B8710200CC1A0020000008402DE9B0438EB00AAFF860C7E90023FB68D3E90045FB68083357
S32D0000CFF8D3E90089FB681033D3E90023D7E90E01CDE90801D7E90C01CDE90601D7E90A01CDE90401D7E90001E2
S32D0000D020CDE90201CDE9002342464B4620462946FFF766FD00BF1037BD46BDE8B083000080B584B000AF0023ED
S32D0000D048FB73274804F08CFE0346184611F06EFC02460B46C7E9002319A3D3E90023D7E9000111F041FF0346FB
S32D0000D070002B0CD016A3D3E90023D7E9000111F02DFF0346002B02D00223FB7315E012A3D3E90023D7E90001E2
S32D0000D09811F020FF0346002B0BD00FA3D3E90023D7E9000111F020FF0346002B01D00123FB73FB7B1846103797
S32D0000D0C0BD4680BDAFF30080CDCCCCCCCCCCEC3F666666666666F63FCDCCCCCCCCCC0040CDCCCCCCCCCCF83F4A
S32D0000D0E8481700200000000090B589B000AF0023FB61FB69022B28DC654AFB69DB001344D3E900231046194681
S32D0000D1100FF012FE02460B466048F96909010144C1E900235C4AFB69DB001344D3E90023104619460FF09AFEBC
S32D0000D13802460B465748F969090101440831C1E90023FB690133FB61D3E74FF44871524805F004F940F6FC0171
S32D0000D1604F4805F01CF94F494D4805F035F94E4808F054F84C4808F0A7FA0346184611F0D9FB02460B46C7E9E4
S32D0000D18804234FF00002474B0020FFF72DFA04F0BBFAC7E90201424808F092FA0346184611F0C4FBD7E904238A
S32D0000D1B011F060FA02460B461046194601231C4631A3D3E9002311F089FE0346002B01D100231C46E3B2002B5C
S32D0000D1D800D0E0E704F098FAD7E9022311F046FA02460B463049C1E90023FFF775F92E4BD3E9000124A3D3E9EA
S32D0000D200002311F019FD02460B46104619460FF0E3FD02460B461046194611F07DFE0346244A1360202013F062
S32D0000D22801FC03461A46224B1A60214B1B6800221A601F4B1B681F4A13600123BB611B4B1B68BA699A4213DAE2
S32D0000D250202013F0EBFB03467B60174B1A687B681A60154B1B687A685A60134A7B681360BB690133BB61E6E7AF
S32D0000D2780F4B1B6800225A6000BF2437BD4690BD9A9999999999C93F7B14AE47E17A743F9071020000170020FA
S32D0000D2A05017002000003443341B00200000E03F60170020941700208C1700209017002080B500AF124808F0B2
S32D0000D2C8F1F90346184611F031FB02460B460F49C1E900230C4808F0F3F90346184611F025FB02460B460A49D0
S32D0000D2F0C1E90023064808F0F5F90346184611F019FB02460B460549C1E9002300BF80BD341B00206817002095
S32D0000D318701700207817002090B585B000AF0023FB60FB68022B00F39C803A1D07F108031946504805F026FEE1
S32D0000D340034683F00103DBB2002B38D04C4AFB6852F82330184611F031FF03461946494805F03AF8454805F038
S32D0000D36856FC4749434805F07AFEFB6801331946404805F051FF43493E4805F03AFF424808F090F90346194607
S32D0000D3903A4805F058FF3E4808F096F903461946364805F050FF3A4808F09CF903461946324805F048FF142089
S32D0000D3B804F06EF9B9E73A1D07F1080319462D4805F0E0FD0346002B00D0F4E72E4808F069F90346184611F0B5
S32D0000D3E0A9FA2C4CFA6813465B001344DB002344C3E90001264808F067F90346184611F099FA244CFA6813467C
S32D0000D4085B001344DB0023440833C3E900011E4808F064F90346184611F088FA1B4CFA6813465B001344DB0086
S32D0000D43023441033C3E900011649FA6813465B001344DB000B44D3E900014FF000024FF0000311F039FD0346C1
S32D0000D458002B02D0FB68013BFB60FB680133FB605FE70B49054804F0B3FF00BF1437BD4690BD00BFCC1A002011
S32D0000D4800000002050170020F471020008720200341B002098170020000034430000000080B588B006AFFFF727
S32D0000D4A823FEFFF739FF7C4805F0B1FB7B497A4805F09FFE3A463B1D1946774805F062FD034683F00103DBB2F3
S32D0000D4D0002B00D0F2E73A463B1D1946704805F055FD0346002B00D0F5E76D4805F093FBFFF7A6FD0346022BBD
S32D0000D4F814BF01230023DBB2002B03D0052004F0C7F8F1E7FFF7D8FE6549634805F071FE59A3D3E90023CDE997
S32D0000D520042359A3D3E90023CDE902234FF000024FF08043CDE9002353A3D3E900235B48FFF74EFD52A3D3E97A
S32D0000D5480023CDE900234FF00002574B0020FFF7A3F94FF00001554804F03AFF46A3D3E90023CDE9042346A38C
S32D0000D570D3E90023CDE902234FF000024FF08043CDE9002340A3D3E900234B48FFF728FD4A49484804F020FF11
S32D0000D5984FF4FA7004F07CF8C82301224FF4FA710120FFF731F9C823012264210020FFF72BF9C82301930123E3
S32D0000D5C0009331A3D3E900234FF496710020FFF74BF9C8230193012300932BA3D3E900234FF4C8716FF059003C
S32D0000D5E8FFF73EF9C82301930123009324A3D3E900234FF49671B420FFF732F9C8230193012300931EA3D3E91A
S32D0000D61000234FF4C8715A20FFF726F92849254804F0DAFE16A3D3E90023CDE904231AA3D3E90023CDE9022328
S32D0000D6384FF000024FF08043CDE900230EA3D3E900231E48FFF7C8FC0DA3D3E90023CDE900234FF000021A4BEA
S32D0000D660B420FFF71DF91549124804F0B5FE17490B4805F0C2FD002318460837BD4680BD9A9999999999C93F57
S32D0000D6889A9999999999D93F333333333333E33F333333333333D33FCC1A002018720200307202009817002028
S32D0000D6B00000344050170020B01700200000A04200003443C8170020000014403C72020090B583B000AF78600F
S32D0000D6D839607B68012B2ED13B684FF6FF72934229D1174C174A0021204600F089FB0834144A0121204600F084
S32D0000D70083FB04F10803114A0221184600F07CFB00210F4804F018FB0E4C1821204604F041F801341A212046BF
S32D0000D72804F03CF8631C1C21184604F037F80721074804F0F7FD00BF0C37BD4690BD00BF301700200000104146
S32D0000D750481700204C1700205017002080B500AF4FF6FF710120FFF7B3FF80BD80B500AF0F4BD3F8A03003F4B3
S32D0000D7788053002B14BF01230023DBB2002B10D0094BD3F8A030084A23F48053C2F8A030064808F067F9064B27
S32D0000D7A01B68054A23F40053136000BF80BD00BF00C00440541B0020C0F00F4080B400AF124B4FF480725A632D
S32D0000D7C8114B5B69104A43F4005353610E4B1B680D4A43F4005313600A4B0C4A1A630C4BD3F888310A4A43F0C1
S32D0000D7F08063C2F88831084B9B68074A43F08063936000BFBD4680BC704700BF00C00440C0F00F4003010A0080
S32D0000D81800E100E080B400AF334B00225A70324B98221A70304B9B79DBB203F01003002B14BF01230023DBB21F
S32D0000D840002B00D0F2E72A4B9B79DBB29B08DBB203F00303022B14BF01230023DBB2002B00D0F0E7224B18225A
S32D0000D8681A71214B00225A71204B03F580531A461F4B53641C4B54225A711B4B9B79DBB203F02003002B0CBF3C
S32D0000D89001230023DBB2002B00D0F2E7144B9B79DBB203F04003002B0CBF01230023DBB2002B00D0F2E70E4B95
S32D0000D8B81B78DBB20C4A03F03F03DBB213700A4B9B79DBB29B08DBB203F00303032B14BF01230023DBB2002B68
S32D0000D8E000D0F0E700231846BD4680BC704700BF00400640007004400000130180B500AF314B03F580539B6BBE
S32D0000D9082F4A43F4785302F580529363FFF752FFFFF780FF2B4B58221A602A4B1B684FF47A7202FB03F3284A05
S32D0000D9301360274B1B681A46234B03F580535B6C1B0E03F00F030133B2FBF3F31A46214B1A601D4B03F5805393
S32D0000D958DB6B1B4A43F0225302F58052D363184B03F580531B6B164A43F0006302F580521363174B4FF48072CF
S32D0000D9801A61642003F074FD134B5B69124A23F010035361104B00221A600F4B10225A610E4804F0C5FF04F07E
S32D0000D9A8C7FA04F025FB0C4803F0C0FD0B4808F01DF94FF4FA6003F06BFE00BF80BD00BF00700440181A00205D
S32D0000D9D0141A00201C1A002000D00340CC1A0020101A0020FC1D002080B500AFFEF7ABFC00BF80BD80B500AF89
S32D0000D9F8FEF7A5FC00BF80BD80B500AFFEF79FFC00BF80BD80B500AFFEF799FC00BF80BD80B500AFFEF793FC2D
S32D0000DA2000BF80BD80B500AFFEF78DFC00BF80BD80B500AFFEF787FC00BF80BD80B500AFFEF781FC00BF80BDD4
S32D0000DA4880B500AFFEF77BFC00BF80BD80B500AFFEF775FC00BF80BD80B500AFFEF76FFC00BF80BD80B500AFFA
S32D0000DA70FEF769FC00BF80BD80B500AFFEF763FC00BF80BD80B500AFFEF75DFC00BF80BD80B500AFFEF757FCA4
S32D0000DA9800BF80BD80B500AFFEF751FC00BF80BD80B500AFFEF74BFC00BF80BD80B500AFFEF745FC00BF80BD10
S32D0000DAC080B500AFFEF73FFC00BF80BD80B500AFFEF739FC00BF80BD80B500AFFEF733FC00BF80BD80B500AF36
S32D0000DAE8FEF72DFC00BF80BD80B500AFFEF727FC00BF80BD80B500AFFEF721FC00BF80BD80B500AFFEF71BFC1C
S32D0000DB1000BF80BD80B500AFFEF715FC00BF80BD80B500AFFEF70FFC00BF80BD80B500AFFEF709FC00BF80BD4B
S32D0000DB3880B500AFFEF703FC00BF80BD80B500AFFEF7FDFB00BF80BD80B500AFFEF7F7FB00BF80BD80B500AF73
S32D0000DB60FEF7F1FB00BF80BD80B500AFFEF7EBFB00BF80BD80B500AFFEF7E5FB00BF80BD80B500AFFEF7DFFB97
S32D0000DB8800BF80BD80B500AFFEF7D9FB00BF80BD80B500AFFEF7D3FB00BF80BD80B500AFFEF7CDFB00BF80BD8A
S32D0000DBB080B500AFFEF7C7FB00BF80BD80B500AFFEF7C1FB00BF80BD80B500AFFEF7BBFB00BF80BD80B500AFB0
S32D0000DBD8FEF7B5FB00BF80BD80B500AFFEF7AFFB00BF80BD80B500AFFEF7A9FB00BF80BD80B500AFFEF7A3FB0F
S32D0000DC0000BF80BD80B500AFFEF79DFB00BF80BD80B500AFFEF797FB00BF80BD80B500AFFEF791FB00BF80BDC5
S32D0000DC2880B500AFFEF78BFB00BF80BD80B500AFFEF785FB00BF80BD80B500AFFEF77FFB00BF80BD80B500AFEB
S32D0000DC50FEF779FB00BF80BD80B500AFFEF773FB00BF80BD80B500AFFEF76DFB00BF80BD80B500AFFEF767FB86
S32D0000DC7800BF80BD80B500AFFEF761FB00BF80BD80B500AFFEF75BFB00BF80BD80B500AFFEF755FB00BF80BD01
S32D0000DCA080B500AFFEF74FFB00BF80BD80B500AFFEF749FB00BF80BD80B500AFFEF743FB00BF80BD80B500AF27
S32D0000DCC8FEF73DFB00BF80BD80B500AFFEF737FB00BF80BD80B500AFFEF731FB00BF80BD80B500AFFEF72BFBFE
S32D0000DCF000BF80BD80B500AFFEF725FB00BF80BD80B500AFFEF71FFB00BF80BD80B500AFFEF719FB00BF80BD3D
S32D0000DD1880B500AFFEF713FB00BF80BD80B500AFFEF70DFB00BF80BD80B500AFFEF707FB00BF80BD80B500AF62
S32D0000DD40FEF701FB00BF80BD80B500AFFEF7FBFA00BF80BD80B500AFFEF7F5FA00BF80BD80B500AFFEF7EFFA78
S32D0000DD6800BF80BD80B500AFFEF7E9FA00BF80BD80B500AFFEF7E3FA00BF80BD80B500AFFEF7DDFA00BF80BD7B
S32D0000DD9080B500AFFEF7D7FA00BF80BD80B500AFFEF7D1FA00BF80BD80B500AFFEF7CBFA00BF80BD80B500AFA1
S32D0000DDB8FEF7C5FA00BF80BD80B500AFFEF7BFFA00BF80BD80B500AFFEF7B9FA00BF80BD80B500AFFEF7B3FAF1
S32D0000DDE000BF80BD80B500AFFEF7ADFA00BF80BD80B500AFFEF7A7FA00BF80BD80B500AFFEF7A1FA00BF80BDB7
S32D0000DE0880B584B000AFF8600B467A60FB72FB68FA7A1A71FB6800225A711749786811F0D9FB0346002B02D0D7
S32D0000DE30134B7B600AE04FF07E51786811F0BAFB0346002B02D04FF07E537B60786810F071FD09A3D3E90023F3
S32D0000DE5810F0C4FD02460B461046194611F0A0F80246FB681A60FB6818461037BD4680BDABAAAAAAAAAA20402A
S32D0000DE800000404180B582B000AF78607B685B79002B09D07B6800225A717B6819791E230022034803F080FBE9
S32D0000DEA800BF0837BD4680BD101A002080B584B000AF786039603B687F2B02DD7F23FB7308E03B6813F1800FE1
S32D0000DED002DA8023FB7301E03B68FB737B685B79FA7B9A4209D07B68FA7B5A717B681979FA7B1E23034803F0D8
S32D0000DEF857FB00BF1037BD4680BD00BF101A0020B0B584B000AF786039603749386811F043FB0346002B02D0FD
S32D0000DF20334B3B6008E03349386811F057FB0346002B01D02F4B3B60386810F0FBFC04460D467B681B68184611
S32D0000DF4810F0F4FC4FF00002294B10F071FE02460B462046294610F041FD02460B461046194611F01DF803463E
S32D0000DF703B604FF00001386811F026FB0346002B10D0386810F0D6FC17A3D3E9002310F029FD02460B46104672
S32D0000DF98194610F0BDFF0346FB6018E0386810F0C5FC4FF00002134B10F018FD02460B46104619464FF0000200
S32D0000DFC00D4B10F039FE02460B461046194610F0A3FF0346FB60F9687868FFF76BFF00BF1037BD46B0BD00BF3A
S32D0000DFE852B81E85EB51F43F0000C8C20000C842000059400000604080B483B000AF03460A46FB711346BB7182
S32D0000E010BB79002B03D1134B00221A7002E0114B01221A703823FB710E4B1A78FB791343FB710D4B9B78DBB2DA
S32D0000E0380B4A43F01003DBB29370094B9B78DBB2074A43F02003DBB29370054AFB79137100BF0C37BD4680BCDC
S32D0000E060704700BFE01700200060064080B483B000AF01237B607B68312B04DC00BF7B6801337B60F7E700BFDD
S32D0000E0880C37BD4680BC704780B582B000AF03460A46FB711346BB71134B1B7800211846FFF7AAFF00F024F876
S32D0000E0B0104AFB79137100F01FF80E4ABB79137100F01AF80B4B9B78DBB20A4A23F02003DBB29370074B9B7862
S32D0000E0D8DBB2064A23F01003DBB29370FFF7C2FF00BF0837BD4680BDE11700200060064080B483B000AF174B5C
S32D0000E1001B78002B24D100237B60154BDB78DBB203F00203002B0CBF01230023DBB2002B0DD07B6842F210729D
S32D0000E128934203DD0B4B01221A7004E07B6801337B6000BFE5E7084BDB78DBB2064A43F00203DBB2D37000E045
S32D0000E15000BF0C37BD4680BC704700BFE21700200060064080B582B000AF0346FB71FB79184600F05FF800BF88
S32D0000E1780837BD4680BD80B582B000AF03460A46FB711346BB7100F035F8FB795B00DBB21846FFF7E3FFBB7977
S32D0000E1A01846FFF7DFFF00F037F800BF0837BD4680BD80B500AFFF2000F03CF80346184680BD80B584B000AF9F
S32D0000E1C80346FB7100F016F8FB795B005BB243F001035BB2DBB21846FFF7C0FFFFF7E5FF0346FB7300F014F829
S32D0000E1F0FB7B18461037BD4680BD000080B400AF044B9B68034A43F48013936000BFBD4680BC704740F00F4033
S32D0000E21880B400AF044B5B68034A43F48013536000BFBD4680BC704740F00F4080B485B000AF0346FB710023F5
S32D0000E240BB73164BDB6A03F00043012B0CBF01230023DBB2002B03D0FB7B0133FB73F0E70E4BDB6A0D4A43F0C6
S32D0000E2680043D3620B4AFB7953630A4BDB6A03F40033002B0CBF01230023DBB2002B00D0F3E7044B9B6BBB73AB
S32D0000E290BB7B18461437BD4680BC704700C00A4080B582B000AF204B03F580531B6B1E4A43F4805302F5805274
S32D0000E2B813631C4B4FF480721A651B4B5B691A4A43F480135361FFF7A3FF164B4FF400725A65144B4FF400721A
S32D0000E2E09A65124B4FF40072DA65124B124A1A60104B124ADA6000237B607B68092B06DCFF20FFF72FFF7B687F
S32D0000E30801337B60F5E704A1D1E9000103F0D6F900BF0837BD4680BD9A9999999999B93F0070044000A0044075
S32D0000E33040F00F4000C00A40000C00800500003E90B486B000AFF860B9607A60FB68534A93420AD1524B03F5AE
S32D0000E35880535B6B504A43F4806302F58052536345E0FB684D4A93420AD14B4B03F580535B6B494A43F40063A8
S32D0000E38002F58052536336E0FB68474A93420AD1434B03F580535B6B414A43F4805302F58052536327E0FB6899
S32D0000E3A8404A93420AD13C4B03F580535B6B3A4A43F4005302F58052536318E0FB683A4A93420AD1344B03F562
S32D0000E3D080539B6A324A43F4806302F58052936209E02F4B03F580539B6A2D4A43F4006302F580529362FB688E
S32D0000E3F8DB78DBB223F00C03DAB2FB68DA70FB6800229A70BB684FF47A7203FB02F27B681B0192FBF3F39CB229
S32D0000E420FB681B78DBB223F01F03FB75230A9BB2DBB203F01F03DAB2FB7D1343DAB2FB681A70E2B2FB685A70F6
S32D0000E448BB684FF4FA4203FB02F27B681B0192FBF3F39AB263019BB2D31A9CB2FB689B7ADBB223F01F03FB75BE
S32D0000E470E3B203F01F03DAB2FB7D1343DAB2FB689A72FB68DB78DBB243F00C03DAB2FB68DA7000BF1837BD46B0
S32D0000E49890BC704700A006400070044000B0064000C0064000D0064000A00E4080B483B000AF78607B681B7954
S32D0000E4C0DBB203F02003002B0CBF01230023DBB2002B00D0F2E77B68DB79DBB218460C37BD4680BC704780B45E
S32D0000E4E883B000AF78600B46FB707B681B79DBB25BB2DB43DBB2DB09DBB2002B00D0F4E77B68FA78DA7100BF2E
S32D0000E5100C37BD4680BC704780B487B000AFF860B9607A60FB687B61BB683B617B685A1E7A60002B14BF0123EA
S32D0000E5380023DBB2002B08D03A69531C3B617B69591C796112781A70ECE700BF1C37BD4680BC704780B487B0C7
S32D0000E56000AFF860B9607A60FB687B617B685A1E7A60002B14BF01230023DBB2002B06D07B695A1C7A61BA68F5
S32D0000E588D2B21A70EEE700BF1C37BD4680BC704780B489B000AFF860B9607A60FB68FB61BB68BB6100237B6116
S32D0000E5B07B685A1E7A60002B0FD0FB695A1CFA611B781946BB695A1CBA611B78CB1A7B617B69002B01D10123C9
S32D0000E5D800E00023002B00D0E6E77B6918462437BD4680BC704780B483B000AF786039607B681B78002B09D0B6
S32D0000E6007B681B781A463B68934203D07B6801337B60F1E77B681B7818460C37BD4680BC704780B584B000AFDC
S32D0000E628786039607B681B6BFB60FA683B689A4252D07B681B79002B35D07B6858787B6803F134010123FA68A0
S32D0000E65002F0ACFD0346002B14BF01230023DBB2002B01D001233CE07B6800221A717B685A6A7B681B6A1344B4
S32D0000E678FA689A4217D27B68DB78FB72FB7A012B11D97B681B6AFA681344FB607B6858787B6803F134010123C0
S32D0000E6A0FA6802F083FDFB7A013BFB72EAE73B68002B15D07B6858787B6803F1340101233A6802F08FFC03468B
S32D0000E6C8002B14BF01230023DBB2002B01D0012303E07B683A681A63002318461037BD4680BD80B584B000AF2D
S32D0000E6F0786000217868FFF794FF0346FB73FB7B002B40F093807B681B78032B7DD17B685B79002B79D07B68FF
S32D0000E71800221A637B6834334FF4007200211846FFF718FF7B68552283F832227B68AA2283F833227B685222AA
S32D0000E74083F834207B68522283F835207B68612283F836207B68412283F837207B68722283F818227B687222C3
S32D0000E76883F819227B68412283F81A227B68612283F81B227B681B69DAB27B6883F81C227B681B699BB21B0A4A
S32D0000E7909BB2DAB27B6883F81D227B681B691B0CDAB27B6883F81E227B681B691B0EDAB27B6883F81F227B688F
S32D0000E7B8DB68DAB27B6883F820227B68DB689BB21B0A9BB2DAB27B6883F821227B68DB681B0CDAB27B6883F87B
S32D0000E7E022227B68DB681B0EDAB27B6883F823227B6858787B6803F134017B685A69012302F0D4FC7B680022F9
S32D0000E8085A717B685B7800220021184602F096FD0346002B14BF01230023DBB2002B01D00123FB73FB7B1846BE
S32D0000E8301037BD4680BD80B483B000AF786039603B68023B3B607B68DB69023B3A689A4201D3002308E07B688D
S32D0000E8589B781A463B6803FB02F27B68DB6A134418460C37BD4680BC704780B586B000AF786039603B68012B1A
S32D0000E88004D97B68DB693A689A4201D30123B5E07B681B78032B7AD0032B00F3AD80012B02D0022B4DD0A7E050
S32D0000E8A83B683B613B695B083A6913443B617B685A6A3B695B0A134419467868FFF7ADFE0346002B14BF012314
S32D0000E8D00023DBB2002B40F088803B69C3F308037A68134493F83430FB603B6901333B617B685A6A3B695B0AFB
S32D0000E8F8134419467868FFF790FE0346002B14BF01230023DBB2002B6DD13B69C3F308037A68134493F83430C7
S32D0000E9201B021A46FB681343FB603B6803F00103002B02D0FB681B0960E0FB68C3F30B035CE07B685A6A3B682D
S32D0000E9481B0A134419467868FFF767FE0346002B14BF01230023DBB2002B46D13B685B0003F4FF7330337A6882
S32D0000E970134404337B617B6901331B781B021AB27B691B781BB213431BB29BB236E07B685A6A3B68DB0913442C
S32D0000E99819467868FFF741FE0346002B14BF01230023DBB2002B22D13B689B0003F4FE7330337A68134404332B
S32D0000E9C07B617B6903331B781A067B6902331B781B0413437A6901321278120213437A691278134323F07043CC
S32D0000E9E808E000BF04E000BF02E000BF00E000BF4FF0FF3318461837BD4680BD80B588B000AFF860B9607A60B2
S32D0000EA10BB68012B04D9FB68DB69BA689A4202D30223FB77EEE0FB681B78032B00F09780032B00F3DA80012BFB
S32D0000EA3802D0022B6BD0D4E0BB687B617B695B087A6913447B61FB685A6A7B695B0A13441946F868FFF7E1FD0C
S32D0000EA600346FB77FB7F002B40F0C2807B69C3F308033033FA6813440433BB61BB6803F00103002B0DD0BB695C
S32D0000EA881B785BB203F00F035AB27B68DBB21B015BB213435BB2DBB201E07B68DBB2BA6913707B6901337B613B
S32D0000EAB0FB6801221A71FB685A6A7B695B0A13441946F868FFF7ADFD0346FB77FB7F002B40F090807B69C3F3C7
S32D0000EAD808033033FA6813440433BB61BB6803F00103002B03D07B681B09DBB20CE0BB691B7823F00F03DAB296
S32D0000EB007B681B0ADBB203F00F03DBB21343DBB2BA69137073E0FB685A6ABB681B0A13441946F868FFF77DFDEF
S32D0000EB280346FB77FB7F002B62D1BB685B0003F4FF733033FA6813440433BB617B68DAB2BB691A707B689BB289
S32D0000EB501B0A9AB2BB690133D2B21A704FE0FB685A6ABB68DB0913441946F868FFF759FD0346FB77FB7F002BA1
S32D0000EB7840D1BB689B0003F4FE733033FA6813440433BB61BB6903331B781A06BB6902331B781B041343BA6938
S32D0000EBA00132127812021343BA691278134303F070437A6813437B607B68DAB2BB691A707B689BB21B0A9AB2A6
S32D0000EBC8BB690133D2B21A707B681A0CBB690233D2B21A707B681A0EBB690333D2B21A7009E00223FB7706E070
S32D0000EBF000BF04E000BF02E000BF00E000BFFB6801221A71FB7F18462037BD4680BD80B584B000AF786039604C
S32D0000EC183B68012B04D97B68DB693A689A4202D30223FB7338E00023FB737B68DB693A689A4231D23968786843
S32D0000EC40FFF717FEB860BB68002B26D0BB68012B02D10223FB7323E0BB68B3F1FF3F02D10123FB731CE00022FF
S32D0000EC6839687868FFF7CAFE0346FB73FB7B002B11D17B681B69B3F1FF3F07D07B681B695A1C7B681A617B68C7
S32D0000EC9001225A71BB683B60CBE700BF00E000BFFB7B18461037BD4680BD80B586B000AF786039603B68002BE6
S32D0000ECB80DD17B68DB683B613B69002B04D07B68DB693A699A4215D301233B6112E039687868FFF7CAFDB86055
S32D0000ECE0BB68012B01D8012364E07B68DB69BA689A4201D2BB685DE03B683B613B697B617B6901337B617B6888
S32D0000ED08DB697A699A4207D302237B617A693B699A4201D9002349E079697868FFF7A5FDB860BB68002B0ED0D8
S32D0000ED30BB68B3F1FF3F02D0BB68012B01D1BB6838E07A693B699A42DAD1002332E000BF6FF0704279697868AD
S32D0000ED58FFF754FE0346FB73FB7B002B09D13B68002B06D07A6939687868FFF747FE0346FB73FB7B002B10D197
S32D0000ED807B687A69DA607B681B69B3F1FF3F10D07B681B695A1E7B681A617B6801225A7107E0FB7B012B02D1D2
S32D0000EDA84FF0FF3300E001237B617B6918461837BD4680BD80B584B000AF78600B467B807B687A88DA807B68BD
S32D0000EDD09B68FB60FB68012B05D07B681B68DB69FA689A4201D3022364E0FB68002B08D17B681B681B78032BA0
S32D0000EDF803D17B681B689B6AFB60FB68002B13D17B68FA68DA607B681B681B897A889A4201D302234AE07B6874
S32D0000EE201B689A6A7B881B091A447B681A6135E07B681B689B789BB21B017B817A887B899A421CD37B681B6830
S32D0000EE48F9681846FFF711FDF860FB68B3F1FF3F01D101232AE0FB68012B05D97B681B68DB69FA689A4201D313
S32D0000EE7002231FE07A887B89D31A7B80DEE77B68FA68DA607B681B68F9681846FFF7D3FC02467B881B091A4467
S32D0000EE987B681A617B681B6803F134027B8803F00F035B011A447B685A61002318461037BD4680BD90B585B07C
S32D0000EEC000AF786039607B68DB8801333B813B89002B03D07B681B69002B01D10423C4E03B8903F00F03002BE9
S32D0000EEE840F0B0807B681B695A1C7B681A617B68DB68002B08D17B681B681B893A899A42C0F0A0800423ACE00B
S32D0000EF103B891B097A6812689278013A1340002B40F094807B681A687B68DB6819461046FFF79FFCF860FB68FC
S32D0000EF38012B01D8022394E0FB68B3F1FF3F01D101238EE07B681B68DB69FA689A426DD33B68002B01D1042375
S32D0000EF6083E07B681A687B68DB6819461046FFF79CFEF860FB68002B01D1072375E0FB68012B01D1022370E043
S32D0000EF88FB68B3F1FF3F01D101236AE07B681B6800211846FFF741FB0346002B14BF01230023DBB2002B01D0A8
S32D0000EFB001235AE07B681B6834334FF4007200211846FFF7CBFA7B681A687B681C68F9681046FFF730FC03462B
S32D0000EFD823630023FB727B681B689B78FA7A9A421CD27B681B6801221A717B681B6800211846FFF712FB0346F9
S32D0000F000002B14BF01230023DBB2002B01D001232BE07B681B681A6B01321A63FB7A0133FB72DCE77B681B680B
S32D0000F028196BFA7A7B681B688A1A1A637B68FA68DA607B681B68F9681846FFF7F8FB02467B681A617B683A8962
S32D0000F050DA807B681B6803F134023B8903F00F035B011A447B685A61002318461437BD4690BD80B586B000AF51
S32D0000F078786000217868FFF79DFE0346FB75FB7D002B01D0FB7D3CE07B681A687B681B6919461046FFF7C1FA0D
S32D0000F0A00346FB75FB7D002B2BD17B685B693B613B691B78FB73FB7B002B02D10423FB7522E03B690B331B7880
S32D0000F0C803F00803002B0BD17B689B690B2219463869FFF75DFA0346002B01D1012300E00023002B0BD100211F
S32D0000F0F07868FFF7E3FE0346FB75FB7D002B03D1C6E700BF00E000BFFB7D18461837BD4680BD80B584B000AF83
S32D0000F118786000217868FFF74DFE0346FB73FB7B002B21D17B681A687B681B6919461046FFF773FA0346FB73CA
S32D0000F140FB7B002B13D17B685B691B78BB73BB7BE52B0DD0BB7B002B0AD001217868FFF7ADFE0346FB73FB7B86
S32D0000F168002B01D1DEE700BFFB7B002B1FD17B681A687B681B6919461046FFF74EFA0346FB73FB7B002B12D16D
S32D0000F1907B685B69BB6020220021B868FFF7DEF97B689B690B221946B868FFF7B5F97B681B6801221A71FB7B7E
S32D0000F1B818461037BD4680BD80B588B000AF786039603B681B68FB60FB681B782F2B03D0FB681B785C2B03D1C2
S32D0000F1E0FB680133FB60F3E77B689B69BB600B222021B868FFF7B2F90023FB7700233B613B697B610823BB61E9
S32D0000F208FA687B6913441B782E2B2FD17B695A1C7A61FA6813441B78BB77BB7F2E2B0AD17B69022B07D83B699A
S32D0000F2305A1C3A61BA681344BA7F1A70EAE7BB7F2F2B07D0BB7F5C2B04D0BB7F202B01D90623A7E0FA687B693D
S32D0000F2581A443B681A60BB7F202B01D8242200E02022BB680B331A70002397E07B695A1C7A61FA6813441B7841
S32D0000F280BB77BB7F202B58D9BB7F2F2B55D0BB7F5C2B52D0BB7F2E2B03D03A69BB699A420FD3BB69082B02D1C7
S32D0000F2A8BB7F2E2B01D0062378E008233B610B23BB61FB7F9B00FB773AE097F91E30002B08DAFB7F43F0030303
S32D0000F2D0FB77BB7F803B354AD35CBB77BB7F19463348FFF784F90346002B14BF01230023DBB2002B01D0062302
S32D0000F2F854E0BB7F402B07D9BB7F5A2B04D8FB7F43F00203FB770CE0BB7F602B09D9BB7F7A2B06D8FB7F43F073
S32D0000F3200103FB77BB7F203BBB773B695A1C3A61BA681344BA7F1A709CE7FA687B691A443B681A60BB7F202BC8
S32D0000F34801D8042300E00023BB773B69002B01D1062323E0BB681B78E52B02D1BB6805221A70BB69082B02D1FE
S32D0000F370FB7F9B00FB77FB7F03F00303012B03D1BB7F43F01003BB77FB7F03F00C03042B03D1BB7F43F00803CC
S32D0000F398BB77BB680B33BA7F1A70002318462037BD4680BD44720200C472020080B584B000AF786039603B68BD
S32D0000F3C01B782F2B03D03B681B785C2B06D13B6801333B607B6800229A6004E07B681B689A697B689A603B688D
S32D0000F3E81B781F2B09D800217868FFF7E3FC0346FB737B6800225A6169E03B4619467868FFF7DAFE0346FB735E
S32D0000F410FB7B002B58D17868FFF72BFE0346FB737B689B69DB7ABB73FB7B002B1DD0FB7B042B4BD1BB7B03F06C
S32D0000F4382003002B0DD07B6800229A607B6800225A610023FB73BB7B03F00403002B3BD135E0BB7B03F004037F
S32D0000F460002B35D10523FB7332E0BB7B03F00403002B2FD17B685B69BB60BB680B331B7803F01003002B02D190
S32D0000F4880523FB7323E0BB6815331B781B021AB2BB6814331B781BB213431BB29BB21B04BA681B321278120270
S32D0000F4B011B2BA681A32127812B20A4312B292B21A437B689A609CE700BF04E000BF02E000BF00E000BFFB7B85
S32D0000F4D818461037BD4680BD80B582B000AF786039607B6858787B6803F1340101233A6801F074FD0346002B3F
S32D0000F50014BF01230023DBB2002B01D003234AE07B6803F2322301331B781B021AB27B6893F832321BB2134318
S32D0000F5281BB2214A934201D0022338E07B686A3303331B781A067B686A3302331B781B0413437A686A320132C3
S32D0000F5501278120213437A6892F86A20134323F07F43144A934201D100231CE07B68863303331B781A067B68EC
S32D0000F578863302331B781B0413437A68863201321278120213437A6892F88620134323F07F43064A934201D17A
S32D0000F5A0002300E0012318460837BD4680BD00BF55AAFFFF4641540080B592B000AFF860B9601346FB71FB68E3
S32D0000F5C81B68FB62FB6A1B78303B3B643B6C092B0BD8FB6A01331B783A2B06D1FB6A0233FB62FB68FA6A1A60D5
S32D0000F5F002E0A34B1B783B643B6C002B01D00B2367E2A04A3B6C52F82330BB62BB68BA6A1A60BB6A002B01D1A3
S32D0000F6180C235AE2BB6A1B78002B1AD0BB6A5B78184601F00DFF034687F8273097F8273003F00103002B0CD135
S32D0000F640FB79002B07D097F8273003F00403002B01D00A233DE200233BE2BB6A00221A703B6CDAB2BB6A5A70CB
S32D0000F668BB6A5B78184601F07FFA034687F8273097F8273003F00103002B01D0032324E2FB79002B07D097F88B
S32D0000F690273003F00403002B01D00A2319E20023FB63F96BB86AFFF71BFF034687F8473097F84730012B22D15C
S32D0000F6B8BB6A03F5F9733B623B6A04331B78002B19D03B6A0B331B781A063B6A0A331B781B0413433A6A09321C
S32D0000F6E01278120213433A6A083212781343FB63F96BB86AFFF7F4FE034687F8473097F84730032B01D1012315
S32D0000F708E3E197F84730002B01D00D23DDE1BB6A93F840301B021AB2BB6A93F83F301BB213431BB2B3F5007FE0
S32D0000F73001D00D23CDE1BB6A93F84B301B021AB2BB6A93F84A301BB213431BB29BB2BB63BB6B002B12D1BB6A0A
S32D0000F75893F85B301A06BB6A93F85A301B041343BA6A92F8592012021343BA6A92F858201343BB63BB6ABA6B29
S32D0000F7801A62BB6A93F84430FB77BB6AFA7FDA70FB7F012B04D0FB7F022B01D00D2398E1FA7FBB6B02FB03F334
S32D0000F7A8BB63BB6A93F84130FB77BB6AFA7F9A70FB7F002B05D0FA7FFB7F013B1340002B01D00D2381E1BB6A2B
S32D0000F7D093F846301B021AB2BB6A93F845301BB213431BB29AB2BB6A1A81BB6A1B8903F00F03002B01D00D2306
S32D0000F7F86BE1BB6A93F848301B021AB2BB6A93F847301BB213431BB29BB27B637B6B002B12D1BB6A93F8573019
S32D0000F8201A06BB6A93F856301B041343BA6A92F8552012021343BA6A92F8542013437B63BB6A93F843301B02CC
S32D0000F8481AB2BB6A93F842301BB213431BB2BB83BB8B002B01D10D2337E1BA8BBB6B1A44BB6A1B891B091344DE
S32D0000F870BB617A6BBB699A4206D20D2329E100BFEA170020E41700207A6BBB69D31ABA6A9278B3FBF2F37B61C9
S32D0000F8987B69002B01D10D2317E1012387F847307B6940F6F572934202D9022387F847307B694FF6F57293426E
S32D0000F8C002D9032387F847307B699A1CBB6ADA61FA6BBB691A44BB6ADA62BA8BFB6B1A44BB6A5A6297F84730F1
S32D0000F8E8032B1ED1BB6A1B89002B01D00D23ECE0BB6A93F863301A06BB6A93F862301B041343BA6A92F86120CB
S32D0000F91012021343BA6A92F860201A43BB6A9A62BB6ADB699B003B631FE0BB6A1B89002B01D10D23CDE0BB6A4A
S32D0000F9385A6ABB6B1A44BB6A9A6297F84730022B03D1BB6ADB695B000AE0BB6ADA6913465B0013445A08BB6A89
S32D0000F960DB6903F0010313443B63BB6A1A6A3B6B03F2FF135B0A9A4201D20D23A9E0BB6A4FF0FF321A61BB6AF1
S32D0000F9880022DA6097F84730032B40F08680BB6A00225A71BB6A93F865301B021AB2BB6A93F864301BB21343E4
S32D0000F9B01BB29BB21A46FB6B1A44BB6A5A61BB6A5878BB6A03F13401BB6A5A69012301F009FB0346002B39D149
S32D0000F9D8BB6A93F833321B021AB2BB6A93F832321BB213431BB23B4A93422BD1BB6A93F837301A06BB6A93F8C2
S32D0000FA0036301B041343BA6A92F8352012021343BA6A92F834201343314A934216D1BB6A93F81B321A06BB6ABF
S32D0000FA2893F81A321B041343BA6A92F8192212021343BA6A92F818221343284A934201D1012300E00023002B68
S32D0000FA5027D0BB6A93F823321A06BB6A93F822321B041343BA6A92F8212212021343BA6A92F820221A43BB6A26
S32D0000FA78DA60BB6A93F81F321A06BB6A93F81E321B041343BA6A92F81D2212021343BA6A92F81C221A43BB6ACB
S32D0000FAA01A61BB6A97F847201A700F4B1B8801339AB20D4B1A800C4B1A88BB6ADA80BB6A00221A63BB6A002226
S32D0000FAC81A71BB6A00229A61002318464837BD4680BD00BF55AAFFFF5252614172724161E817002080B582B0F5
S32D0000FAF000AF78600B467B807B68002B08D07B681B78002B04D07B68DB887A889A4201D0092311E07B685B78F2
S32D0000FB18184601F095FC034603F00103002B14BF01230023DBB2002B01D0032300E0002318460837BD4680BDCB
S32D0000FB4080B485B000AF03463960FB71FB79002B01D00B2316E0FB790D4A52F82330FB60FB68002B02D0FB6817
S32D0000FB6800221A703B68002B02D03B6800221A70FB7905493A6841F82320002318461437BD4680BC704700BF73
S32D0000FB90E417002080B592B000AFF860B9601346FB71FB6800221A60FB7903F01F03FB71FB7923F00103DAB2C5
S32D0000FBB807F11C0107F108031846FFF7F9FC034687F8473007F110037B6397F84730002B09D1BA6807F11C0352
S32D0000FBE011461846FFF7E6FB034687F847303B6B3B6497F84730002B05D13B6C002B02D1062387F84730FB79A8
S32D0000FC0803F01C03002B00F0B18097F84730002B12D097F84730042B07D107F11C031846FFF773FA034687F8B0
S32D0000FC304730FB7943F00803FB713B6B3B6412E03B6C0B331B7803F01103002B03D0072387F8473007E0FB79E2
S32D0000FC5803F00403002B02D0082387F8473097F84730002B40F0A080FB7903F00803002B00F09A800023FB63BD
S32D0000FC803B6C0E33FA6BD2B21A70FB6B9BB21B0A9AB23B6C0F33D2B21A70FB6B1A0C3B6C1033D2B21A70FB6BF6
S32D0000FCA81A0E3B6C1133D2B21A703B6C0B3300221A703B6C1C3300221A703B6C1D3300221A703B6C1E3300221D
S32D0000FCD01A703B6C1F3300221A703B6C15331B781B021AB23B6C14331B781BB213431BB29BB21B043A6C1B329C
S32D0000FCF81278120211B23A6C1A32127812B20A4312B292B21343BB633B6C1A3300221A703B6C1B3300221A7033
S32D0000FD203B6C143300221A703B6C153300221A70FB6901221A71BB6B002B39D0FB691B6BFB63FB69B96B1846E6
S32D0000FD48FEF761FF034687F8473097F84730002B2AD1FB69BA6B013ADA60FB69F96B1846FEF75BFC034687F895
S32D0000FD7047301DE097F84730002B19D13B6C0B331B7803F01003002B03D0042387F847300EE0FB7903F00203E3
S32D0000FD98002B09D03B6C0B331B7803F00103002B02D0072387F8473097F84730002B0FD1FB7903F00803002BFF
S32D0000FDC003D0FB7943F02003FB71FB691A6BFB68DA61FB683A6C1A6297F84730002B42D1FB68FA799A713B6C34
S32D0000FDE815331B781B021AB23B6C14331B781BB213431BB29BB21B043A6C1B321278120211B23A6C1A3212787C
S32D0000FE1012B20A4312B292B21A43FB681A613B6C1F331B781A063B6C1E331B781B0413433A6C1D321278120231
S32D0000FE3813433A6C1C3212781A43FB68DA60FB6800229A60FB6800229A61FB6800225A62FA69FB681A60FB69EA
S32D0000FE60DA88FB689A8097F8473018464837BD4680BD80B586B000AF78607B681A687B689B8819461046FFF76A
S32D0000FE8831FE0346FB75FB7D002B40F0AC807B689B7903F02003002B00F0A5807B689B7903F04003002B1BD0D5
S32D0000FEB07B681B6858787B6803F128017B689A69012301F073F90346002B14BF01230023DBB2002B01D001234C
S32D0000FED88AE07B689B7923F04003DAB27B689A717B681A687B68DB6919461046FEF795FB0346FB75FB7D002BA9
S32D0000FF0075D17B681B6A3B613B690B331A783B690B3342F02002D2B21A707B68DA683B691C33D2B21A707B68C8
S32D0000FF28DB689BB21B0A9AB23B691D33D2B21A707B68DB681A0C3B691E33D2B21A707B68DB681A0E3B691F3315
S32D0000FF50D2B21A707B681A693B691A33D2B21A707B681B699BB21B0A9AB23B691B33D2B21A707B681B691A0C5E
S32D0000FF783B691433D2B21A707B681B691B0C9BB21B0A9AB23B691533D2B21A700023FB603B691633FA68D2B2CB
S32D0000FFA01A70FB689BB21B0A9AB23B691733D2B21A70FB681A0C3B691833D2B21A70FB681A0E3B691933D2B207
S32D0000FFC81A707B689B7923F02003DAB27B689A717B681B6801221A717B681B681846FEF780FB0346FB75FB7D61
S32D0000FFF018461837BD4680BD80B584B000AF78607868FFF736FF0346FB73FB7B002B02D17B6800221A60FB7BDB
S32D0001001818461037BD4680BD80B588B000AF7860396080233B610F23FB604FF0FF337B610223FB61FB69B3F5A1
S32D00010040807F23D80123BB61BB69102B1AD8FB69BA6902FB03F33A6803FB02F27B68D31ABB60BB68002B09DBDB
S32D00010068BB687A699A4205D9BB687B61FB693B61BB69FB60BB690133BB61E1E7FB695B00FB61D7E71D4BDB6A69
S32D000100901C4A23F00803D3621A4BDB6A23F47F2323F47F63BB613B695B081B029AB2FB68013B1B01DBB21A43FB
S32D000100B8BB691343114A43F46023D3620F4B5B6A03F00803002B0CBF01230023DBB2002B03D00A2001F0DCFA7F
S32D000100E0F0E7084BDB6A074A43F00803D362054B1B6B044A43F48013136300BF2037BD4680BD00BF00100B40EA
S32D0001010880B582B000AF786039607B6800221A60414B424ADA62404BDB6A03F08073002B14BF01230023DBB2E6
S32D00010130002B00D0F3E73A4B0022C3F8C020384B4FF481325A60364B28229A62344B4FF001125A643B689B685A
S32D0001015833491846FFF760FF2F4B5B6A03F00303002B14BF01230023DBB2002B00D0F3E72C4B40F243421A60C2
S32D000101802A4B40F243425A60284B4FF488629A60264B40F24342DA60244B40F243421A61224B40F243425A61EE
S32D000101A8214B03F580531B6B1F4A43F4003302F580521363184B4FF6FF721A63164B1B4A5A63154BDB6A144A3D
S32D000101D043F00063D362124BDB6A03F00063002B14BF01230023DBB2002B00D0F3E70C4B5B6A03F48033002BA5
S32D000101F814BF01230023DBB2002B02D07B6801221A60054B1B6B044A43F080031363002318460837BD4680BD64
S32D0001022000100B400080000160CC050000D0044000700440B3007F0080B400AF064B5A6A40F207331340002BC6
S32D0001024814BF01230023DBB21846BD4680BC704700100B4080B485B000AF7860074B1B6B7A681340FB60FB6876
S32D00010270002B00D1F6E7FB6818461437BD4680BC704700BF00100B4080B584B000AF78607B681B7803F03F03CF
S32D00010298764A52F82330FB60FB68002B05D17B681B78002B01D00123DCE0714B1B6B704A43F0800313636E4BE8
S32D000102C05B6A03F00103002B14BF01230023DBB2002B00D0F3E7684A7B685B689360FB6823F44003FB607B6866
S32D000102E85B789B0503F44003FA681343FB607B685B78022B03D1FB6843F40013FB607B685B78042B16D1FB6839
S32D0001031003F44033B3F5003F08D1FB6823F44033FB60FB6843F44033FB6007E0FB6823F44033FB60FB6843F41B
S32D000103380033FB604E4B5B684D4A9BB253607B68DB68002B2AD0FB6803F44033B3F5403F03D0FB6843F4001356
S32D00010360FB607B681B7A002B03D0FB6843F01003FB607B68DB68012B03D9FB6843F02003FB607B68DB68B3F18D
S32D00010388FF3F0BD03A4B5A687B68DB681B04384913434B60FB6843F00203FB60344B00221A60334AFB68D360FB
S32D000103B03248FFF753FF0346012B14BF01230023DBB2002B09D02C4B1B6B2B4A43F4702343F00103136301232F
S32D000103D848E0274B1B6B03F08003002B14BF01230023DBB2002B07D0214B1B6B204A43F001131363012335E03A
S32D000104001D4B1B6B03F48033002B14BF01230023DBB2002B08D0184B1B6B174A43F0011313634FF0FF3321E0E7
S32D00010428FB6803F44033002B15D0114B1A697B681A61FB6803F44033B3F5803F0BD10C4B5A697B685A610A4B6E
S32D000104509A697B689A61084BDA697B68DA61064B1B6B054A43F001031363002318461037BD4680BDE0720200B9
S32D0001047800100B4001000E0080B592B000AF7860396000237B643B68BB63994B7B637B6B002B02D140F6012391
S32D000104A05FE3964B3B633B6B002B02D140F60B2357E33B6B1B68FB62FB6A002B02D140F60B234EE37B6841F296
S32D000104C80932934200F23F837B68B3F5985F08D87B68032B00F01A837B68092B00F0098331E37B68A3F5985334
S32D000104F0013B082B00F22B8301A252F823F000BF25050100110801006D0A010027080100650801008B0901001F
S32D00010518D3090100150901002F0901007649786BFFF7EEFD78647B6C002B40F01083002387F84330002387F894
S32D000105402B30002387F82A30002387F82930002387F84230002387F8283000233B7200237B720023FB600023AB
S32D000105683B7400237B6107F108031846FFF788FE0346002B14BF01230023DBB2002B02D001237B64E8E240F2C2
S32D000105904C4001F081F808233B7200237B724FF4D573FB6000233B7400237B6107F108031846FFF769FEF8638E
S32D000105B8FB6B002B09D1BA69FB689A4202D001237B64C9E2012387F84230012387F8283097F82830002B00F0B5
S32D000105E0A58037233B7200237B720023FB6000233B7400237B6107F108031846FFF744FEF863FB6B002B02D00A
S32D0001060801237B64A8E269233B7200237B720023FB6000233B7400237B6107F108031846FFF72EFE0346002BA7
S32D0001063014BF01230023DBB2002B02D001237B648EE2BB6903F44013002B6FD00023FB630A2001F021F8FB6B91
S32D000106580133FB6337233B7200237B720023FB6000233B7400237B6107F108031846FFF707FE0346002B14BFD8
S32D0001068001230023DBB2002B02D001237B6428E069233B7200237B7297F84230002B02D0184BFB6002E04FF445
S32D000106A84013FB6000233B7400237B6107F108031846FFF7E5FD0346002B14BF01230023DBB2002B02D001232F
S32D000106D07B6406E0BB69002B03DBFB6B632B00D8B6E77B6C002B40F03882FB6B632B0BD9002387F8423019E0BF
S32D000106F804180020081A0020D472020000003040012387F8433097F84230002B0AD0002387F84230BB6903F056
S32D000107208043002B02D0012387F8423097F82A30002B02D07B6B07221A6097F82930002B02D07B6B08221A60F7
S32D0001074897F82B30002B02D07B6B04221A6097F84330002B09D07B6B02221A6097F84230002B02D07B6B032282
S32D000107701A6097F82B30002B0DD097F84330002B09D07B6B05221A6097F84230002B02D07B6B06221A60924BFE
S32D0001079800221A60904B00225A608F4B00229A608D4B0022DA608C4B00221A618A4B00225A61FB6A9A68FB6AC3
S32D000107C05B6819461046FFF72BFC854B40F243421A60834B40F243425A60814B4FF488629A607F4B40F24342C1
S32D000107E8DA607D4B40F243421A617B4B40F243425A617A4B03F580531B6B784A43F4003302F580521363A7E16D
S32D00010810B86BFFF739FDF863FB6B002B00F09F8102237B649BE1BB6B002B02D10C237B6496E16D4BDB6A1B0A23
S32D000108385B0003F4FF73FB63694BDB6A1B0903F00F035A1CFB6B02FB03F3FB63FB6A9A68FB6BB2FBF3F2BB6B9B
S32D000108601A607DE1BB6B002B02D10C237B6477E1BB6B1B68002B02D10C237B6470E1FFF7DBFC0346002B0CBFF5
S32D0001088801230023DBB2002B3CD0534B00221A60514B00225A60504B00229A604E4B0022DA604D4B00221A61A3
S32D000108B04B4B00225A61FB6A9A68BB6B1B6819461046FFF7ADFB464B40F243421A60444B40F243425A60424BF4
S32D000108D84FF488629A60404B40F24342DA603E4B40F243421A613C4B40F243425A613B4B03F580531B6B394A40
S32D0001090043F4003302F58052136329E140F60A237B6425E1BB6B002B02D10C237B641FE1314B5B68C3F30C0298
S32D00010928BB6B1A6018E1BB6B002B02D10C237B6412E1FFF77DFC0346002B0CBF01230023DBB2002B19D0BB6B26
S32D000109501B68B3F5805F02D30C237B6400E1224B5B68214A23F4FF5323F01F0353601E4B5A68BB6B1B68C3F334
S32D000109780C031B4913434B60EEE040F60A237B64EAE0BB6B002B02D10C237B64E4E0144B9B6A5B0803F003034C
S32D000109A0FB63FB6B002B03D1BB6B00221A60D7E0FB6B012B03D1BB6B01221A60D0E0FB6B102B03D1BB6B022254
S32D000109C81A60C9E005237B64C6E0BB6B002B09D10C237B64C0E000BF00D004400070044000100B40FFF724FC5F
S32D000109F00346002B0CBF01230023DBB2002B31D0BB6B1B68002B0AD1584B9B6A574A23F006039362554B554A51
S32D00010A189B6A9362A0E0BB6B1B68012B0CD1514B9B6A504A23F0060393624E4B9B6A4D4A43F0020393628FE066
S32D00010A40BB6B1B68022B0AD1484B9B6A474A23F006039362454B454A9B6A936280E005237B647DE040F60A235C
S32D00010A687B6479E0BB6B002B02D10C237B6473E03C4BDB6A3B4A43F00063D362394BDB6A03F00063002B14BF69
S32D00010A9001230023DBB2002B00D0F3E7334B1B6B03F08003002B14BF01230023DBB2002B08D02E4B1B6B2D4AC9
S32D00010AB843F0800313637B6B00221A60294B5B6A03F48033002B14BF01230023DBB2002B07D07B6B1B68002B16
S32D00010AE006D17B6B01221A6002E07B6B00221A607B6B1A68BB6B1A6032E0BB6B1C221A60BB6B043304221A6034
S32D00010B08BB6B08334FF41E721A6025E00220FFF7A1FB144B1B6B03F4E003002B14BF01230023DBB2002B07D0C4
S32D00010B300E4B1B6B0D4A43F4E003136304237B640A4B1B6B094A43F03203136308E040F609237B6404E000BFF2
S32D00010B5802E000BF00E000BF7B6C18464837BD4680BD00BF00100B4080B590B000AF0346FB71A64BFB63A64BF7
S32D00010B80BB63BB6BA54A1A60FB79002B01D00123A9E1A34B1B78DBB203F00203002B14BF01230023DBB2002B78
S32D00010BA803D09D4B1B78DBB299E19B4B1B78DBB203F00303002B0CBF01230023DBB2002B01D000238BE1BB6B4F
S32D00010BD0002B03D0BB6B1B68002B01D1002382E1FB6B904A1A60FB6B01225A60BB6B00225A60BB6B00229A608B
S32D00010BF8BB6B00221A61BB6B00221A73BB6B00225A73874B03F580531B6B854A43F4003302F580521363002165
S32D00010C2041F20130FFF72CFC0346002B14BF01230023DBB2002B01D0002354E10023BB6207F12803194641F2BF
S32D00010C480330FFF719FC0346002B14BF01230023DBB2002B01D0002341E1BB6A022B08D0BB6A032B05D0BB6A6C
S32D00010C70052B02D0BB6A062B09D1BB6A032B02D0BB6A062B05D1BB6B01221A7301E0002329E100BF02233B725D
S32D00010C9800237B720023FB6000233B7400237B6107F10803194641F20230FFF7E5FB0346002B14BF01230023A3
S32D00010CC0DBB2002B01D000230DE103233B7200237B720023FB6000233B7400237B6107F10803194641F2023072
S32D00010CE8FFF7CAFB0346002B14BF01230023DBB2002B01D00023F2E0BB691B0C1B04BA6B136109233B72002317
S32D00010D107B72BB6B1B69FB6000233B7400237B6107F10803194641F20230FFF7A9FB0346002B14BF0123002302
S32D00010D38DBB2002B01D00023D1E07B6A03F44003002B1ED13B6A1B0A03F00F033B633B6A03F003037B637B6B27
S32D00010D609A02FB699B0D13437B63FB69DB0903F00703FB627B6B5A1CFB6A02339A403B6B093B9A40BB6B9A6032
S32D00010D880CE0BB6B01225A73FB691B0AC3F315037B637B6B01339A02BB6B9A6007233B7200237B72BB6B1B699E
S32D00010DB0FB6000233B7400237B6107F10803194641F20230FFF75CFB0346002B14BF01230023DBB2002B01D0BD
S32D00010DD8002384E010233B7200237B724FF40073FB6000233B7400237B6107F10803194641F20230FFF740FB9B
S32D00010E000346002B14BF01230023DBB2002B0DD0002368E0081A0020EC170020001800200C000020D472020024
S32D00010E2800700440BB6B1B681B68012B49D137233B7200237B72BB6B1B69FB6000233B7400237B6107F1080385
S32D00010E50194641F20230FFF713FB0346002B14BF01230023DBB2002B01D000233BE046233B7200237B7202230B
S32D00010E78FB6000233B7400237B6107F10803194641F20230FFF7F8FA0346002B14BF01230023DBB2002B01D059
S32D00010EA0002320E00123BB6207F12803194641F20730FFF7E5FA0346002B14BF01230023DBB2002B01D00023C4
S32D00010EC80DE0094B1B78DBB223F00103DAB2064B1A70054B1B78DBB203F00303DBB218464037BD4680BD00BF52
S32D00010EF00C00002080B489B000AF786039607B687B61364B3B613B69002B01D100235FE03B691B68022B0BD00C
S32D00010F183B691B68032B07D03B691B68072B03D03B691B68082B0BD12B4B5B6A03F00403002B14BF01230023A2
S32D00010F40DBB2002B00D0F3E73B68FB61FB69002B3DD0FB69B3F5007F28BF4FF40073FB60FB6803339B08BB61AA
S32D00010F68BB69002B2AD01C4B1B6B03F4E003002B14BF01230023DBB2002B09D0164B1B6B154A43F4E00343F0E1
S32D00010F902003136300231BE0114B5B6A03F40063002B0CBF01230023DBB2002B00D0F3E70B497B691A1D7A6117
S32D00010FB80A6A1A60BB69013BBB61D1E7FA69FB68D31AFB61BEE7012318462437BD4680BC704700BF0418002066
S32D00010FE000100B4080B58EB000AFB9607A601A460346FB731346BB73414B7B63FB7B002B02D1BB7B002B01D1C3
S32D00011008042375E03D4B1B78DBB203F00103002B14BF01230023DBB2002B01D0032367E0BB68002B01D1002320
S32D0001103062E07B6B1B7B002B02D17B685B027B60BB7B012B28D111233B7500237B757B68BB6101233B77BB7B5D
S32D000110583B6207F11403194641F20230FFF70CFA0346002B0CBF01230023DBB2002B38D04FF40071B868FFF7ED
S32D0001108039FF0346002B14BF01230023DBB2002B2BD00023BB7328E012233B7500237B757B68BB6101233B77A2
S32D000110A8BB7B3B6207F11403194641F20230FFF7E3F90346002B0CBF01230023DBB2002B0FD0BB7B5B02194692
S32D000110D0B868FFF70FFF0346002B14BF01230023DBB2002B01D00023BB73BB7B002B01D0012300E0002300BF4D
S32D000110F818463837BD4680BDEC1700200C00002080B487B000AF786039607B68FB603B687B617B69002B3DD009
S32D000111207B69B3F5007F28BF4FF400733B617A693B69D31A7B613B6903339B083B613B69002BEAD0184B1B6B81
S32D0001114803F4E003002B14BF01230023DBB2002B0AD0134B1B6B124A43F4E00343F0100313634FF0FF3316E04A
S32D000111700D4B5B6A03F48063002B0CBF01230023DBB2002B00D0F3E7FB681A1DFA60064A1B6813623B69013B9E
S32D000111983B61D0E7012318461C37BD4680BC704700100B4080B58EB000AFB9607A601A460346FB731346BB73FC
S32D000111C05D4B7B63FB7B002B02D1BB7B002B01D10423ADE0594B1B78DBB203F00103002B14BF01230023DBB292
S32D000111E8002B01D003239FE0524B1B78DBB203F00403002B14BF01230023DBB2002B01D0022391E0BB68002BCE
S32D0001121001D100238CE07B6B1B7B002B02D17B685B027B60BB7B012B28D118233B7500237B757B68BB6100233E
S32D000112383B77BB7B3B6207F11403194641F20230FFF71AF90346002B0CBF01230023DBB2002B38D04FF400712C
S32D00011260B868FFF751FF0346002B14BF01230023DBB2002B2BD00023BB7328E019233B7500237B757B68BB6161
S32D0001128800233B77BB7B3B6207F11403194641F20230FFF7F1F80346002B0CBF01230023DBB2002B0FD0BB7B8A
S32D000112B05B021946B868FFF727FF0346002B14BF01230023DBB2002B01D00023BB730D233B7500237B757B6BD6
S32D000112D81B69BB6100233B7700233B6207F11403194641F20230FFF7C7F80346002B14BF01230023DBB2002BE4
S32D0001130001D0012314E07A6A0D4B1340002B01D001230DE07B6A03F4F853B3F5106F00D0D5E7BB7B002B01D02D
S32D00011328012300E0002300BF18463837BD4680BDEC1700200C0000200880D9FF80B58CB000AF03463A60FB7185
S32D000113500B46BB713A4BBB62FB79002B01D0042369E0012387F82F30364B1B78DBB203F00103002B14BF0123B3
S32D000113780023DBB2002B01D0032358E0BB79032B50D801A252F823F0A1130100A9130100B9130100C913010096
S32D000113A0002387F82F3044E0BB6A9A683B681A60002387F82F303CE03B684FF400721A80002387F82F3034E091
S32D000113C809233B7200237B72BB6A1B69FB6000233B7400237B6107F10803194641F20230FFF74AF80346002BC5
S32D000113F014BF01230023DBB2002B01D001231AE07B6A03F44003002B0CD13B6A9B0C03F07F035A1C7B6A1B0AA5
S32D0001141803F00303013B9A403B681A60002387F82F3002E0042387F82F3097F82F3018463037BD4680BD00BFDF
S32D00011440EC1700200C00002080B483B000AF0346FB71FB79002B01D0012302E0034B1B78DBB218460C37BD46DB
S32D0001146880BC70470C00002080B483B000AF7860164B03F580539B6B144A43F0010302F580529363124A7B6883
S32D000114909360114B05225A600F4B1B680E4A43F0010313600C4B1B6803F08003002B0CBF01230023DBB2002BD9
S32D000114B800D0F3E7064B1B68054A23F00103136000BF0C37BD4680BC704700BF007004400000044080B582B098
S32D000114E000AF786039607B68012B07D13B684FF6FF72934202D1034800F00EF800BF0837BD4680BD101A00200C
S32D0001150880B500AF4FF6FF710120FFF7E3FF80BD80B483B000AF78607B6800221A707B6818460C37BD4680BCA5
S32D000115307047000080B582B000AF78607B681B7883F00103DBB2002B21D0134B03F580531A464FF4006393622D
S32D00011558104B4FF440721A620E4B4FF440725A620D4B1B68DA0F13445B104FF4614219460A48FCF7E1FE64201B
S32D0001158000F08AF87B6801221A70012300E0002318460837BD4680BD0070044000D00440141A002000B00E4022
S32D000115A880B582B000AF7860084611461A460346FB700B46BB7013467B707F210E48FCF78EFF08210C48FCF7C7
S32D000115D08AFFFB7819460A48FCF785FFBB7819460748FCF780FF7B7819460548FCF77BFFFF210348FCF777FF95
S32D000115F800BF0837BD4680BD00B00E4080B487B000AFF860B9607A60FB681F4AA2FB03239B09BA6813447B619B
S32D00011620FB681B4AA2FB031292094FF47A7101FB02F29B1AFB60FB68DB03154AA2FB03239B097A6813443B617C
S32D000116483B69DB0B7A6913447B613B69C3F30E033B610E4B1B687A699A4209D80B4B1B687A699A4206D1094B8D
S32D000116705B683A699A4201D9012300E00023002B00D0EAE700BF1C37BD4680BC704700BFD34D621000D00340D0
S32D0001169880B584B000AF7860074B1B68FB60064B5B68BB607B68BA68F9681846FFF7A6FF00BF1037BD4680BD2F
S32D000116C000D0034080B584B000AFC7E900010E4B1B68FB600C4B5B68BB604FF000020B4BD7E900010DF07EF9E7
S32D000116E802460B46104619460DF03AFC0346BA68F9681846FFF782FF00BF1037BD4680BD00D0034000408F4049
S32D0001171080B584B000AF134B1B68FB60114B5B68BB60F8680DF0E4F802460B46C7E90023B8680DF0DDF84FF046
S32D0001173800020B4B0DF07CFA02460B46D7E900010CF096FF02460B46C7E90023D7E90023104619461037BD467E
S32D0001176080BD00BF00D003400000E04080B483B000AF0B4B1B684FF47A7202FB03F37B60074B5B684FF47A72FB
S32D0001178802FB03F3DB0B7A6813447B607B6818460C37BD4680BC704700D0034080B584B000AF78600B46FB700C
S32D000117B00B23FB73FA7BFB781946786800F094F87B6818461037BD4680BD000080B485B000AF78607B68103BE5
S32D000117D8002B00DA1F335B11FB60FB68022B53D0FB68022B75DCFB68002B03D0FB68012B25D06EE0394BD3F8AE
S32D0001180080217B68103B594203F01F0301F01F0158BF4B42012101FA03F332491343C1F88031304B1A687B6857
S32D00011828103B594203F01F0301F01F0158BF4B42012101FA03F3294913430B6049E0274BD3F884217B68103B62
S32D00011850594203F01F0301F01F0158BF4B42012101FA03F31F491343C1F884311D4B5A687B68103B594203F0DF
S32D000118781F0301F01F0158BF4B42012101FA03F3164913434B6024E0144BD3F888217B68103B594203F01F0342
S32D000118A001F01F0158BF4B42012101FA03F30D491343C1F888310B4B9A687B68103B594203F01F0301F01F01EC
S32D000118C858BF4B42012101FA03F3044913438B6000BF00BF1437BD4680BC704700E100E080B584B000AF78603C
S32D000118F00B46FB701346BB707B68FA781A70BB78FB737B681B781A46574B9B5C042B00F2A68001A252F823F053
S32D000119182D19010079190100C51901005D1A0100111A0100FB7B1B0403F470234D497A68127810464C4A52F8EC
S32D00011940202043F4897343F0010341F82230494B5A697B681B781946454B53F8213003F01F03012101FA03F3C3
S32D00011968DB43424913404B616720FFF72BFF72E0FB7B1B0403F470233D497A6812781046394A52F8202043F404
S32D00011990897343F0010341F82230384B5A697B681B781946324B53F8213003F01F03012101FA03F3DB43314976
S32D000119B813404B616820FFF705FF4CE0FB7B1B0403F470232C497A6812781046264A52F8202043F4897343F09D
S32D000119E0010341F82230274B5A697B681B7819461F4B53F8213003F01F03012101FA03F3DB43204913404B618B
S32D00011A086920FFF7DFFE26E0FB7B1B0403F470231B497A6812781046134A52F8202043F4897343F0010341F87E
S32D00011A302230164B5A697B681B7819460C4B53F8213003F01F03012101FA03F3DB430F4913404B616B20FFF72B
S32D00011A58B9FE00E000BF00BF1037BD4680BD00BFE0730200009004402474020000F00F4000A0044040F00F409F
S32D00011A8000B0044080F00F4000D0044000F10F40B0B48BB000AF224B3C1D1D460FCD0FC495E80F0084E80F0003
S32D00011AA800237B627B6A072B30DC1C4BD3F8A0207B6A9B0028333B4453F8243C012101FA03F31340002B14BF91
S32D00011AD001230023DBB2002B18D0134A7B6A52F823305A1C10497B6A41F823200D4BD3F8A0207B6A9B00283333
S32D00011AF83B4453F8243C012101FA03F307491340C1F8A0307B6A01337B62CBE700BF2C37BD46B0BC704700BFA7
S32D00011B202875020000A00440401A0020B0B489B000AF224B3C1D1D460FCD0FC495E8030084E803000023FB6107
S32D00011B48FB69052B30DC1C4BD3F8A020FB699B0020333B4453F81C3C012101FA03F31340002B14BF01230023BD
S32D00011B70DBB2002B18D0FB690833124A52F823200132104941F823200D4BD3F8A020FB699B0020333B4453F817
S32D00011B981C3C012101FA03F307491340C1F8A030FB690133FB61CBE700BF2437BD46B0BC704700BF4875020023
S32D00011BC000B00440401A0020B0B48DB000AF234B3C461D460FCD0FC40FCD0FC495E8070084E807000023FB6210
S32D00011BE8FB6A0A2B30DC1C4BD3F8A020FB6A9B0030333B4453F8303C012101FA03F31340002B14BF01230023F2
S32D00011C10DBB2002B18D0FB6A0E33124A52F823200132104941F823200D4BD3F8A020FB6A9B0030333B4453F85E
S32D00011C38303C012101FA03F307491340C1F8A030FB6A0133FB62CBE700BF3437BD46B0BC704700BF6075020044
S32D00011C6000900440401A0020B0B487B000AF214B3C461D460FCD0FC42B68236000237B617B69042B30DC1C4B22
S32D00011C88D3F8A0207B699B0018333B4453F8183C012101FA03F31340002B14BF01230023DBB2002B18D07B698B
S32D00011CB01933124A52F823200132104941F823200D4BD3F8A0207B699B0018333B4453F8183C012101FA03F3EA
S32D00011CD807491340C1F8A0307B6901337B61CBE700BF1C37BD46B0BC704700BF8C75020000D00440401A002083
S32D00011D0080B483B000AF78607B681B781A46044B53F8223018460C37BD4680BC704700BF401A002080B483B0CD
S32D00011D2800AF78607B681B781946044B002243F8212000BF0C37BD4680BC7047401A002080B483B000AF7860E3
S32D00011D500B46FB707B68FA781A707B6818460C37BD4680BC7047000080B586B000AF78607B681B781A463E4BFE
S32D00011D7853F822303B617B681B781A463B4B9B5CFB733B69DBB203F01F03DAB2384B1A723B69DBB203F01F031B
S32D00011DA0DAB2354B5A72354B1022C3F88820FB7B002B13D13049324800F05AFA304B1B6803F08003802B14BF79
S32D00011DC801230023DBB2002B00D0F3E72A4B1B697B6112E02649294800F046FA274B1B6803F08003802B14BF83
S32D00011DF001230023DBB2002B00D0F3E7214B1B697B611E4BD3F888311C4A43F01003C2F888311A4B9B68194A78
S32D00011E1843F0100393607B699BB218460CF064FD0DA3D3E900230CF0D9FD02460B46104619460BA3D3E900233A
S32D00011E400CF0FAFE02460B46104619460DF0ACF80346BB60BB6818461837BD4680BD00BFA4703D0AD7A30A403E
S32D00011E6800000000E0FFEF40A474020000740200201A002000E100E000B0034000B00B4080B586B000AF7860B2
S32D00011E907B681B781A46234B53F822303B617B681B781A46204B9B5CFB733B69DBB203F01F03DAB21D4B1A723A
S32D00011EB83B69DBB203F01F03DAB21A4B5A72FB7B002B13D11749184800F0CEF9164B1B6803F08003802B14BF24
S32D00011EE001230023DBB2002B00D0F3E7104B1B697B6112E00D490F4800F0BAF90D4B1B6803F08003802B14BF5E
S32D00011F0801230023DBB2002B00D0F3E7074B1B697B617B6918461837BD4680BDA474020000740200301A002084
S32D00011F3000B0034000B00B4098B500AF204B5C221A701F4B10225A701D4B41F234225A801B4B45F278629A8063
S32D00011F58194B10229A71184B0722DA71164B4FF4C022DA60144B1F221A72134B1F225A721149124800F078F976
S32D00011F800F49114800F074F90F4800F0D2F80D4800F0CFF80A490C4800F06AF90849094800F066F9094A064B78
S32D00011FA814460FCB84E80F00064B5C221A70054B0422DA7100BF98BD201A002000B0034000B00B40301A00207B
S32D00011FD080B500AF064B1B680133054A136000F03DF8044B0122C3F80C2100BF80BD00BFC41A00200070034049
S32D00011FF880B500AF0C4B01221A600C4800F01AF8094B0322C3F80821094BD3F88831084A43F01003C2F888314C
S32D00012020054B9B68044A43F01003936000BF80BD00700340A086010000E100E080B483B000AF7860044A7B6801
S32D00012048C2F8003100BF0C37BD4680BC704700BF0070034080B584B000AF174B1B68FB60FB68002B24D0FB68D7
S32D000120705B78FB71FB689B68184600F023F80346BB71BB79002B13D0FB685B68012B0FDDFB689B681B69BB6039
S32D00012098BB68002B08D0BB685B685A1CBB685A60BB681B69BB60F3E7FB68DB68FB60D7E700BF1037BD4680BD19
S32D000120C0C01A002080B584B000AF78607868FFF7DBFEF8607B689B695B78FB72FB7A002B0FD17B68DB68FA68D1
S32D000120E89A420ADD7B689B6901225A707B685B685A1C7B685A60012313E0FB7A012B0FD17B689B68FA689A42BD
S32D000121100ADA7B689B6900225A707B685B685A1C7B685A60012300E0002318461037BD4680BD80B485B000AF0C
S32D0001213878607B681B6A23F040027B681A627B685B6A23F00B027B685A627B685B6A43F007027B685A627B68B7
S32D000121605B6A43F080027B685A627B681B6803F08003002B0CBF01230023DBB2002B00D0F3E77B685B6A03F021
S32D000121884003402B0CBF01230023DBB2002B01D0012364E00023FB817B68DB6CFB817B689B6C9AB2FB89134421
S32D000121B0FB817B685B6C9AB2FB891344FB817B681B6C9AB2FB891344FB817B68DB6B9AB2FB891344FB817B687B
S32D000121D89B6B9AB2FB891344FB81FB895B08FB81FB896FEA43436FEA5343FB81FA897B68DA620023FB817B68DA
S32D00012200DB6EFB817B689B6E9AB2FB891344FB817B685B6E9AB2FB891344FB817B681B6E9AB2FB891344FB81FD
S32D000122287B68DB6D9AB2FB891344FB817B689B6D9AB2FB891344FB81FB895B08FB81FB896FEA43436FEA534376
S32D00012250FB81FA897B681A637B685B6A23F080027B685A62002318461437BD4680BC704780B483B000AF786074
S32D0001227839603B681B781A467B689A603B685B781A467B68DA603B685B881A467B689A613B689B881A467B686B
S32D000122A0DA613B689B791A467B681A623B68DB791A467B685A623B68DA687B681A653B681B7A1A467B681A602C
S32D000122C83B685B7A1A467B685A6000BF0C37BD4680BC704780B483B000AF78607B6818460C37BD4680BC704712
S32D000122F080B582B000AF786039607B68012B07D13B684FF6FF72934202D10348FFF7E6FF00BF0837BD4680BDEC
S32D00012318C81A002080B500AF4FF6FF710120FFF7E3FF80BD80B483B000AF78600B46FB707B68FA781A707B6859
S32D000123404FF4FA725A807B6840F6C4129A807B68034A9A607B6818460C37BD4680BC7047000080BF80B483B092
S32D0001236800AF786039603B68B3F5FA7F04DB3B6840F6C412934204DD7B684FF4FA725A8004E03B689AB27B68FC
S32D000123905A8000BF00BF0C37BD4680BC704780B483B000AF786039603B68B3F5FA7F04DB3B6840F6C4129342DF
S32D000123B804DD7B6840F6C4129A8004E03B689AB27B689A8000BF00BF0C37BD4680BC70472DE9904385B000AFB8
S32D000123E0786039604FF0000138680DF0D9F80346002B02D04FF000033B60324938680DF0EDF80346002B01D04A
S32D000124082E4B3B607B689B68194638680DF0BAF80346002B00D04BE07B683A689A607B685C887B689B881A46E2
S32D000124307B685B88D31A18460CF06AFA4FF00002214B0CF0F9FB02460B469046994638680CF070FA02460B4682
S32D00012458404649460CF0C2FA02460B46104619460CF07EFD03469BB22344FB81FB897B73FB891B0A9BB23B7334
S32D000124807F211248FCF72FF805211048FCF72BF87B681B7819460D48FCF725F83B7B19460A48FCF720F87B7BE3
S32D000124A819460848FCF71BF8FF210648FCF717F800BF1437BD46BDE8908300BF000034430080664000B00E40C1
S32D000124D080B582B000AF7860B84B4FF48072DA60B74B4FF480729A64B54B4FF480721A64B34B4FF480725A64A4
S32D000124F8B14B4FF48072DA60B04B5B69AF4A43F008035361AE4B5B69AD4A43F480235361AB4B5B69AA4A43F479
S32D0001252080335361A84B5B69A74A43F400335361A54B1B68A44A43F008031360A24B5B69A14A43F008035361BF
S32D000125489E4B1B689D4A43F0080313609A4B4FF480725A62984B4FF480721A62954B4FF480721A61934B4FF445
S32D0001257080725A61914B4FF480729A618F4B4FF48072DA618D4B4FF480721A638B4B4FF480725A63894B4FF4D0
S32D0001259880729A63874B4FF48072DA63854B4FF480721A64834B4FF480725A64814B4FF480729A647F4B4FF491
S32D000125C08072DA64814B4FF480721A607F4B4FF480729A607D4B4FF48072DA607B4B4FF480721A61784B5B6914
S32D000125E8774A43F440735361744B5B69734A43F47F2343F0F0035361734B5B69724A43F01D035361E22178684A
S32D0001261000F056FE1D21786800F0F8FE0221786800F0F4FE0421786800F0F0FEE021786800F046FE0121786874
S32D0001263800F0E8FE6420FFF72BF8E021786800F03BFE0321786800F0DDFE0121786800F033FE0120FFF71CF8D9
S32D00012660E621786800F02CFE0121786800F0CEFEA021786800F0CAFEFF21786800F0C6FEB021786800F01CFEC4
S32D000126881C21786800F0BEFE0F21786800F0BAFE0121786800F0B6FE3F21786800F0B2FE0021786800F0AEFE7F
S32D000126B0EF21786800F0AAFE0021786800F0A6FEB421786800F0FCFD0121786800F09EFE9921786800F09AFE90
S32D000126D80021786800F096FE4521786800F092FE0221786800F08EFE0021786800F08AFE0021786800F086FE1B
S32D000127000021786800F082FEB621786800F0D8FD0121786800F07AFE0921786800F076FE0021786800F072FE84
S32D000127280E21786800F06EFE0221786800F06AFE0021786800F066FE0021786800F062FEBA21786800F0B8FDB6
S32D000127500F21786800F05AFE6420FEF79DFF3A21786800F0ADFD6021786800F04FFE2A21786800F0A5FD00219C
S32D00012778786800F047FE0021786800F043FE0121786800F03FFE3F21786800F03BFE2B21786800F091FD002188
S32D000127A0786800F033FE0021786800F02FFE0021786800F02BFEEF2178680BE000B0044000A0044080F00F405F
S32D000127C840F00F4000C00440C0F00F4000F01AFE3621786800F070FD0021786800F012FEF021786800F068FD7D
S32D000127F00421786800F00AFEB821786800F060FD0F21786800F002FE0121786800F0FEFD314B1B68304A43F01E
S32D00012818080313606420FEF73BFF3621786800F04BFD0021786800F0EDFDF021786800F043FD0421786800F000
S32D00012840E5FD0121786800F0BCF91E226F21786800F082F8AF225621786800F0DBF80021786800F00AFA0123C2
S32D0001286801221C49786800F02BFA2921786800F023FD6420FEF70CFFBE21786800F01CFD0E21786800F0BEFD84
S32D00012890F021786800F0BAFD0121786800F0B6FD0021786800F0B2FD0021786800F0AEFD0F21786800F0AAFDF9
S32D000128B8786800F028FA0121786800F0DAF90021786800F0AFF900BF0837BD4680BD00BF40F00F40A07502000E
S32D000128E080B582B000AF78607B680022DA617B6801221A627B680E225A607B681A229A607B6800225A617B6890
S32D0001290800229A617B684FF4A072DA607B68F0221A617B6800221A70786801F0A7FA7B6818460837BD4680BDE0
S32D0001293080B582B000AF7860064B1B78002B05D1044B01221A707868FFF7C2FD00BF0837BD4680BD101B00208B
