S01100002E2E2F50726F746575732E73313966
S32D0000C000000000205DC2000011C3000017C300001DC3000023C3000029C3000000000000000000000000000073
S32D0000C028000000002FC3000035C30000000000003BC3000041C30000F5DB000001DC00000DDC000019DC000073
S32D0000C05025DC000031DC00003DDC000049DC000055DC000061DC00006DDC000079DC000085DC000091DC00009C
S32D0000C0789DDC0000A9DC0000B5DC0000C1DC0000CDDC0000D9DC0000E5DC0000F1DC0000FDDC000009DD0000C3
S32D0000C0A015DD000021DD00002DDD000039DD000045DD000051DD00005DDD000069DD000075DD000081DD0000E2
S32D0000C0C88DDD000099DD0000A5DD0000B1DD0000BDDD0000C9DD0000D5DD0000E1DD0000EDDD0000F9DD00000A
S32D0000C0F005DE00009931010011DE00001DDE000029DE000035DE000041DE00004DDE000059DE000065DE0000AC
S32D0000C11871DE00007DDE000089DE000095DE0000A1DE0000ADDE0000B9DE0000C5DE0000D1DE0000DDDE0000C7
S32D0000C140E9DE0000F5DE000001DF00000DDF0000A907010019DF000025DF000031DF00003DDF000049DF00006A
S32D0000C16855DF000061DF00006DDF000079DF000085DF000091DF00009DDF0000A9DF0000B5DF0000C1DF000085
S32D0000C190CDDF0000D9DF0000E5DF0000A1030100690201000503010079D9000041040100F1DF0000FDDF0000FB
S32D0000C1B809E000002CDD010000000020D81600002CDD01000000FF1F00000000D8160020400500000000FF1FBF
S32D0000C1E00000000080B489B000AFF860B9607A60BB68FB61FB68BB6100237B617A697B689A420BD2BA69131DFB
S32D0000C208BB61FB69191DF96112681A607B6904337B61EFE700BF2437BD4680BC704780B485B000AF786039609E
S32D0000C2307B68FB600023BB60BA683B689A4208D2FB681A1DFA6000221A60BB680433BB60F2E700BF1437BD46FE
S32D0000C25880BC704780B586B000AF72B6234B4CF220521A80214B4DF628121A80204B4FF4E9721A801F4B7B615F
S32D0000C2807B691F4A934214D27B691A1D7A611B683B617B691A1D7A611B68FB607B691A1D7A611B68BB60BA68E9
S32D0000C2A8F9683869FFF79AFFE6E77B69134A93420ED27B691A1D7A611B68FB607B691A1D7A611B68BB60B9688B
S32D0000C2D0F868FFF7A8FFECE70B4B7B600B4A7B681A600AF0EFFC62B601F00EFC01F0B2FAFEE700BF0E200540E1
S32D0000C2F800200540BCC10000D4C10000E4C1000008ED00E000C0000080B400AFFEE780B400AFFEE780B400AFF4
S32D0000C320FEE780B400AFFEE780B400AFFEE780B400AFFEE780B400AFFEE780B400AFFEE780B400AFFEE780B426
S32D0000C34800AFFEE7FFFFFFFFFFFFFFFFFFFFFFFFFFFFFFFFFFFFFFFFFFFFFFFFFFFFFFFFFFFFFFFFFFFFFFFF57
S32D0000C370FFFFFFFFFFFFFFFFFFFFFFFFFFFFFFFFFFFFFFFFFFFFFFFFFFFFFFFFFFFFFFFFFFFFFFFFFFFFFFFFC7
S32D0000C398FFFFFFFFFFFFFFFFFFFFFFFFFFFFFFFFFFFFFFFFFFFFFFFFFFFFFFFFFFFFFFFFFFFFFFFFFFFFFFFF9F
S32D0000C3C0FFFFFFFFFFFFFFFFFFFFFFFFFFFFFFFFFFFFFFFFFFFFFFFFFFFFFFFFFFFFFFFFFFFFFFFFFFFFFFFF77
S32D0000C3E8FFFFFFFFFFFFFFFFFFFFFFFFFFFFFFFFFFFFFFFFFFFFFFFFFFFFFFFFFFFFFFFFFFFFFFFFFEFFFFFF50
S32D0000C44010B5054C237833B9044B13B10448AFF300800123237010BDD81600200000000010C4000008B5034B3F
S32D0000C4681BB103490348AFF3008008BD00000000DC16002010C40000B0B582B000AF786039607B68D3E900011F
S32D0000C490124A3B681B011344D3E9002309F06AFC02460B4614461D467B680833D3E900010A4A3B681B01134433
S32D0000C4B80833D3E9002309F059FC02460B462046294609F09DFA02460B46104619460837BD46B0BDF8160020C5
S32D0000C4E080B582B000AF00237B607B68022B0ADC7B68DB00064A1344184601F0CBFD7B6801337B60F1E700BF1F
S32D0000C5080837BD4680BD00BF2817002080B582B000AF7860FFF7E0FF786803F0A5FC00BF0837BD4680BD0000F3
S32D0000C53090B589B000AF78600023FB61FB69022B24DCF9697868FFF79BFFC7E904014FF00002104BD7E90401E0
S32D0000C55809F00CFC02460B461046194609F0A0FE0346FB60FB69DB00094A9C18F86809F0E9FF03461946204696
S32D0000C58001F0CAFDFB690133FB61D7E700BF2437BD4690BD000059402817002080B588B000AFC7E90201C7E942
S32D0000C5A80023D7E9020107F023FED7E9002309F0DDFB02460B46C7E90423D7E9020107F0C7FDD7E9002309F0E9
S32D0000C5D0D1FB02460B46C7E9062307F110031846FFF7A6FF00BF2037BD4680BD0000000080B586B000AFF86033
S32D0000C5F8C7E90023F86809F04FFB0FA3D3E9002309F0B4FB02460B46104619464FF000020B4B09F0D5FC02466F
S32D0000C6200B46C7E90423D7E90023D7E90401FFF7B5FF00BF1837BD4680BD00BFAFF300806E861BF0F9210940E1
S32D0000C648008066400000000090B591B000AFC7E90201C7E90023464BD3E90023D7E9020109F0CCF902460B4659
S32D0000C670104619464FF000024FF0000309F0C4F902460B461046194639A3D3E9002309F071FB02460B46104651
S32D0000C69819464FF00002374B09F092FC02460B46C7E90C23D7E90C0107F052FDD7E9002309F05CFB02460B4674
S32D0000C6C0C7E90423D7E90C0107F096FDD7E9002309F050FB02460B46C7E906230023FB63FB6B022B3DDC07F160
S32D0000C6E81003F96B1846FFF7C7FEC7E90A01D7E91423D7E90A0109F083F902460B46104619464FF000021C4BAC
S32D0000C71009F030FB02460B461046194609F0C4FD03467B62FB6BDB00164A9C18786A09F00DFF0346194620465F
S32D0000C73801F0EEFC7B6A002B05DD114AFB6B012142F8231005E00E4AFB6B4FF0FF3142F82310FB6B0133FB633F
S32D0000C760BEE700BF4437BD4690BD00BFAFF300806E861BF0F9210940681700200080664000005940281700207C
S32D0000C78870170020B0B586B000AFC7E902017A60FB70BC68FB6883F000454FF00002174B2046294609F0E2FA0E
S32D0000C7B002460B461046194609F076FD03463B6100237B617B69022B0FDC7B69DB000E4A9C18386909F0BAFEA4
S32D0000C7D803461946204601F09BFC7B6901337B61ECE7786803F040FBFB78002B02D0B86AFFF78CFE00BF1837A8
S32D0000C800BD46B0BD000059402817002000000000B0B588B002AFB9607B600346FB731346BB730FA3D3E9002391
S32D0000C828C7E90423FB7B83F00103DBB2002B05D03C697B6983F00045C7E90445BA7B7B6800931346BA68D7E971
S32D0000C8500401FFF79BFF00BF1837BD46B0BD00BF9A9999999999D93F80B584B000AFF860B960C7E90023D7E91D
S32D0000C8780023F868FFF7B8FEB86803F0F5FA3B7E002B02D0F869FFF741FE00BF1037BD4680BD000000000000CF
S32D0000C8A080B58EB000AFF860C7E900234FF000024B4BD7E9000109F05DFA02460B46C7E9082300237B63F86860
S32D0000C8C809F0EAF942A3D3E9002309F04FFA02460B46104619464FF00002404B09F070FB02460B461046194694
S32D0000C8F007F082FC02460B46C7E90423F86809F0CFF935A3D3E9002309F034FA02460B46104619464FF00002A7
S32D0000C918324B09F055FB02460B461046194607F017FC02460B46C7E9062300233B633B6B022B20DC07F11003C6
S32D0000C940396B1846FFF79CFDD7E9082309F012FA02460B461046194609F0A6FC0346002BB8BF5B427A6B13449B
S32D0000C9687B633B6B1E4A1344184603F0C3FD3B6B01333B63DBE7D7E91023F868FFF734FE0023FB62FA6A7B6BCE
S32D0000C9909A421BDA0023FB620023BB62BB6A022B10DCBB6A104A1344184603F095FD0346002BB8BF5B42FA6A05
S32D0000C9B81344FB62BB6A0133BB62EBE7052003F053FADFE7FFF788FD00BF3837BD4680BD6E861BF0F9210940DF
S32D0000C9E00000444000806640441700200000000080B58AB000AFC7E900014FF000024FF00003D7E9000109F0F8
S32D0000CA081DFC0346002B04D04FF000024FF000035DE04FF00002344BC7E908232EA3D3E90023C7E906234FF07C
S32D0000CA3000022F4BD7E9000109F02CFC0346002B03D04FF000022B4B45E04FF000022A4BD7E9000109F000FCEB
S32D0000CA580346002B03D04FF00002264B37E04FF000024FF00003D7E9000109F00FFC0346002B16D01AA3D3E985
S32D0000CA800023C7E90223D7E90023D7E9020109F071F902460B461046194611A3D3E9002308F0B2FF02460B4664
S32D0000CAA815E00FA3D3E90023C7E90423D7E90023D7E9040109F05AF902460B461046194605A3D3E9002308F042
S32D0000CAD099FF02460B46104619462837BD4680BD7B14AE47E17AD43F5F07CE1951DA9B3F000039400000F03FC7
S32D0000CAF8000039C00000F0BF2DE9F043AFB002AFC7E90401C7E90223D7E93623D7E9360109F02CF902460B46BE
S32D0000CB20C7E91E234FF000024FF00003C7E91C230023C7F8AC30D7F8AC30022B21DCD7F8AC30AD4A134418469A
S32D0000CB4803F0D8FCD7F8AC30DB00A83307F108021344A3F198014FF000024FF00003C1E90023A44AD7F8AC3028
S32D0000CB70012142F82310D7F8AC300133C7F8AC30D9E79F4807F064F90346184609F09AF802460B46C7E92823CD
S32D0000CB98994807F067F90346184609F08FF802460B46C7E92623944807F06AF90346184609F084F802460B4693
S32D0000CBC0C7E924238F49D7E92823C1E900238E49D7E92623C1E900238C49D7E92423C1E900234FF000028A4B34
S32D0000CBE8C7E9222303F07CF9C7E91A01824807F02BF90346184609F061F802460B46D7E9280109F01BFB03463F
S32D0000CC10002B1FD07A4807F029F90346184609F051F802460B46D7E9260109F00BFB0346002B0FD0724807F095
S32D0000CC3827F90346184609F041F802460B46D7E9240109F0FBFA0346002B01D1012300E00023002B65D06848EC
S32D0000CC6007F0F6F80346184609F02CF802460B46C7E92823624807F0F9F80346184609F021F802460B46C7E9D5
S32D0000CC8826235D4807F0FCF80346184609F016F802460B46C7E924234FF000024FF00003D7E9280109F0D4FA34
S32D0000CCB00346002B2AD04FF00002554BD7E9220109F0C0FA0346002B04D003F00DF9C7E922012AE003F008F95F
S32D0000CCD8D7E9222308F092FE02460B461046194601231E4640A3D3E9002309F0C5FA0346002B01D100231E4684
S32D0000CD00F3B2002B11D0FFF7EBFB30E13D49D7E92823C1E900233C49D7E92623C1E900233A49D7E92423C1E97A
S32D0000CD280023364BD3E90023D7E9040108F066FE02460B46C7E91823314BD3E90023D7E9020108F05BFE0246FE
S32D0000CD500B46C7E91623D7E91823D7E9180109F009F802460B4690469946D7E91623D7E9160108F0FFFF024651
S32D0000CD780B464046494608F043FE02460B46C7E91423204BD3E90023D7E9340108F036FE02460B46C7E9202377
S32D0000CDA0D7F88040D7F8843023F000454FF00002184B2046294609F06DFA0346002B45D04FF00002144BD7E939
S32D0000CDC8200109F045FA0346002B25D04FF00002104BD7E9200108F013FE02460B46C7E92023D9E7AFF3008087
S32D0000CDF09A9999999999D93F4417002070170020281B00205817002060170020681700200000F0BF0080664047
S32D0000CE18008066C0008076404FF00002584BD7E9200109F033FA0346002B0AD04FF00002544BD7E9200108F01E
S32D0000CE40E1FD02460B46C7E92023A9E7D7E91E23D7E9140109F000FA0346002B13D0D7F880303B60D7F884300D
S32D0000CE6823F000437B60D7E90023D7E9380109F00DFA0346002B02D0FFF72EFB73E0D7E91401FFF7B1FD024616
S32D0000CE900B46D7E93A0108F06DFF02460B46C7E912234FF000023A4BD7E9200109F08CF802460B4610461946D4
S32D0000CEB8FFF79AFD02460B46D7E93C0108F056FF02460B46C7E91023D7E91823D7E9160107F0E6F94FF0000277
S32D0000CEE0294B08F047FF02460B461046194622A3D3E9002309F068F802460B46C7E90E23D7E91023CDE90023E1
S32D0000CF08D7E91223D7E90E01FFF79EFB1F4BD3E90023D7E90E0108F071FD02460B46C7E91C2302F0DDFFD7E914
S32D0000CF301A2308F067FD02460B46C7E90C2310A3D3E90023D7E90C0109F086F90346002B0CD0D7E90C230AA101
S32D0000CF58D1E9000108F052FD02460B461046194602F098FF3EE6B437BD46BDE8F08300BF6E861BF0F921094087
S32D0000CF807B14AE47E17A743F008066400080764000000840681700202DE9B0438EB00AAFF860C7E90023FB6820
S32D0000CFA8D3E90045FB680833D3E90089FB681033D3E90023D7E90E01CDE90801D7E90C01CDE90601D7E90A010F
S32D0000CFD0CDE90401D7E90001CDE90201CDE9002342464B4620462946FFF78AFD00BF1037BD46BDE8B0830000D9
S32D0000CFF880B584B000AF0023FB73274803F09CFA0346184608F05AFE02460B46C7E9002319A3D3E90023D7E9AC
S32D0000D020000109F02DF90346002B0CD016A3D3E90023D7E9000109F019F90346002B02D00223FB7315E012A38B
S32D0000D048D3E90023D7E9000109F00CF90346002B0BD00FA3D3E90023D7E9000109F00CF90346002B01D0012314
S32D0000D070FB73FB7B18461037BD4680BDAFF30080CDCCCCCCCCCCEC3F666666666666F63FCDCCCCCCCCCC004011
S32D0000D098CDCCCCCCCCCCF83F4017002080B582B000AF00237B607B68022B28DC1E4A7B68DB001344D3E900236F
S32D0000D0C01046194607F048F802460B461948796809010144C1E90023154A7B68DB001344D3E900231046194657
S32D0000D0E807F086F802460B4610487968090101440831C1E900237B6801337B60D3E74FF448710B4803F016FD7D
S32D0000D11040F6FC01084803F02EFD0849064803F047FD074806F03EFC00BF0837BD4680BD10D00100F8160020AE
S32D0000D1384817002000003443281B002080B500AF124806F081FE0346184608F0B7FD02460B460F49C1E90023AC
S32D0000D1600C4806F083FE0346184608F0ABFD02460B460A49C1E90023064806F085FE0346184608F09FFD02468C
S32D0000D1880B460549C1E9002300BF80BD281B002058170020601700206817002090B585B000AF0023FB60FB68DF
S32D0000D1B0032B00F3A0803A1D07F108031946524804F0D0FA034683F00103DBB2002B38D04E4AFB6852F82330E7
S32D0000D1D8184609F0B7F9034619464B4803F0E4FC474804F000F94949454804F024FBFB6801331946424804F0F2
S32D0000D200E8FB4549404804F0D1FB444806F020FE034619463C4804F0EFFB404806F026FE03461946384804F0DF
S32D0000D228E7FB3C4806F02CFE03461946344804F0DFFB142002F018FEB9E73A1D07F1080319462F4804F08AFADC
S32D0000D2500346002B00D0F4E7304806F0F9FD0346184608F02FFD2E4CFA6813465B001344DB002344C3E900018C
S32D0000D278284806F0F7FD0346184608F01FFD264CFA6813465B001344DB0023440833C3E90001204806F0F4FD1B
S32D0000D2A00346184608F00EFD1D4CFA6813465B001344DB0023441033C3E900011849FA6813465B001344DB0005
S32D0000D2C80B44D3E900014FF000024FF0000308F0BFFF0346002B02D0FB68013BFB604FF47A7002F0C1FDFB6873
S32D0000D2F00133FB605BE70B49054803F059FC00BF1437BD4690BD00BFC01A0020000000204817002060D0010073
S32D0000D31874D00100281B0020801700200000344380B588B006AFA6A3D3E90023CDE900234FF00002AE4B6FF055
S32D0000D3403100FFF7ADFAC82301224FF482710020FFF75EFA9EA3D3E90023CDE900234FF00002A64B0020FFF7FE
S32D0000D3689BFA97A3D3E90023CDE900234FF00002A14B6FF05900FFF78FFAA049A04803F013FCC82002F070FD92
S32D0000D3909E499D4803F00CFC8BA3D3E90023CDE900234FF000029A4B5020FFF779FA8AA3D3E90023CDE90423DA
S32D0000D3B889A3D3E90023CDE902234FF000024FF08043CDE9002382A3D3E900238F48FFF7DFFD8F4806F0FEFCD1
S32D0000D3E00346022B1ED0022B29DC002B02D0012B0CD024E074A3D3E90023CDE900234FF00002864B9620FFF7F3
S32D0000D4084BFA18E06EA3D3E90023CDE900234FF00002814BB420FFF73FFA0CE068A3D3E90023CDE900234FF0F2
S32D0000D43000027A4B6FF09500FFF732FA00BF7949714803F0B5FB4FF4FA7002F011FD6F496D4803F0ADFB5CA360
S32D0000D458D3E90023CDE900234FF00002704B0020FFF71AFA4FF00001654803F09DFB58A3D3E90023CDE9042399
S32D0000D48051A3D3E90023CDE902234FF000024FF08043CDE900234CA3D3E900236348FFF77BFD6049584803F091
S32D0000D4A883FB4FF4FA7002F0DFFCC82301224FF4FA710120FFF7A8F9C823012264210020FFF7A2F9C823019327
S32D0000D4D0012300933CA3D3E900234FF496710020FFF7C2F9C82301930123009336A3D3E900234FF4C8716FF0D5
S32D0000D4F85900FFF7B5F9C82301930123009330A3D3E900234FF49671B420FFF7A9F9C8230193012300932AA368
S32D0000D520D3E900234FF4C8715A20FFF79DF926A3D3E90023CDE900234FF00002384B2D20FFF7AEF94FF000010D
S32D0000D5482F4803F031FB22A3D3E90023CDE9042321A3D3E90023CDE902234FF000024FF08043CDE900231AA347
S32D0000D570D3E900232748FFF70FFD274806F02EFC0346022B54D0022B5FDC002B02D0012B0CD05AE00CA3D3E902
S32D0000D5980023CDE9002312A3D3E900239620FFF77BF94EE006A3D3E90023CDE900230EA3D3E90023B420FFF7CC
S32D0000D5C06FF942E0AFF300809A9999999999D93F333333333333E33F9A9999999999C93F333333333333D33FAB
S32D0000D5E833333333333317406666666666660E4000003140000038400000284000004842481700200000344309
S32D0000D6100000104080170020281B002000001C40000014400000A042000018409817002077A3D3E90023CDE91A
S32D0000D638002377A3D3E900236FF09500FFF72CF900BF7749774803F0AFFA4FF4FA7002F00BFC4FF0000173481E
S32D0000D66003F0A6FA6AA3D3E90023CDE900234FF000026F4B0020FFF713F96E496B4803F097FA67A3D3E9002350
S32D0000D688CDE9042360A3D3E90023CDE902234FF000024FF08043CDE900235BA3D3E900236348FFF775FCC823E4
S32D0000D6B001930123009356A3D3E900234FF4FA71B420FFF7D1F852A3D3E90023CDE900234FF00002564B6FF0FA
S32D0000D6D85900FFF7E1F84CA3D3E90023CDE900234FF000024FF080430020FFF7D5F851494C4803F059FA44A3D4
S32D0000D700D3E90023CDE900234FF00002484B6FF05900FFF7C5F8C82301224FF496710120FFF776F83AA3D3E98E
S32D0000D7280023CDE900234FF00002434BB420FFF7B3F839A3D3E90023CDE9042332A3D3E90023CDE902234FF02D
S32D0000D75000024FF08043CDE900232DA3D3E900233848FFF719FCFFF747FC0346FB71C82002F07EFBFB79012BB3
S32D0000D7781DD13349334804F015F9C82301930123009321A3D3E900234FF42F71A020FFF767F8C8230193012328
S32D0000D7A000931BA3D3E900234FF42F714FF4AA70FFF75AF822E02649244804F0F7F8C82301930123009312A3F8
S32D0000D7C8D3E900234FF46171E020FFF749F8C8230193012300930CA3D3E900234FF461714FF4CA70FFF73CF888
S32D0000D7F0C823012264210120FFF70AF804A3D3E900236220FEF7F4FE00BF0837BD4680BD9A9999999999D93F83
S32D0000D81833333333333317409A9999999999C93F0000F04248170020000018400000F041B01700200000344322
S32D0000D84000003440C817002084D00100C01A00208CD0010080B582B000AFFFF723FCFFF7A1FC1C4803F0C3FDC6
S32D0000D8681B491A4804F09EF83A463B1D1946174803F074FF034683F00103DBB2002B00D0F2E73A463B1D1946EE
S32D0000D890104803F067FF0346002B00D0F5E70D4803F0A5FDFFF7A8FB0346022B14BF01230023DBB2002B03D0FB
S32D0000D8B8052002F0D9FAF1E7FFF740FCFFF730FD002318460837BD4680BD00BFC01A002090D0010090B583B099
S32D0000D8E000AF786039607B68012B2ED13B684FF6FF72934229D1174C174A0021204600F08BFB0834144A012147
S32D0000D908204600F085FB04F10803114A0221184600F07EFB00210F4802F0FEFD0E4C1821204602F027FB01342F
S32D0000D9301A21204602F022FB631C1C21184602F01DFB0721074803F0DDF800BF0C37BD4690BD00BF2817002046
S32D0000D9580000104140170020441700204817002080B500AF4FF6FF710120FFF7B3FF80BD80B500AF0F4BD3F837
S32D0000D980A03003F48053002B14BF01230023DBB2002B10D0094BD3F8A030084A23F48053C2F8A030064806F009
S32D0000D9A851FB064B1B68054A23F40053136000BF80BD00BF00C00440481B0020C0F00F4080B400AF124B4FF441
S32D0000D9D080725A63114B5B69104A43F4005353610E4B1B680D4A43F4005313600A4B0C4A1A630C4BD3F888318F
S32D0000D9F80A4A43F08063C2F88831084B9B68074A43F08063936000BFBD4680BC704700BF00C00440C0F00F40FD
S32D0000DA2003010A0000E100E080B400AF334B00225A70324B98221A70304B9B79DBB203F01003002B14BF0123B7
S32D0000DA480023DBB2002B00D0F2E72A4B9B79DBB29B08DBB203F00303022B14BF01230023DBB2002B00D0F0E747
S32D0000DA70224B18221A71214B00225A71204B03F580531A461F4B53641C4B54225A711B4B9B79DBB203F0200381
S32D0000DA98002B0CBF01230023DBB2002B00D0F2E7144B9B79DBB203F04003002B0CBF01230023DBB2002B00D0C7
S32D0000DAC0F2E70E4B1B78DBB20C4A03F03F03DBB213700A4B9B79DBB29B08DBB203F00303032B14BF01230023E4
S32D0000DAE8DBB2002B00D0F0E700231846BD4680BC704700BF00400640007004400000130180B500AF314B03F5D5
S32D0000DB1080539B6B2F4A43F4785302F580529363FFF752FFFFF780FF2B4B58221A602A4B1B684FF47A7202FB8A
S32D0000DB3803F3284A1360274B1B681A46234B03F580535B6C1B0E03F00F030133B2FBF3F31A46214B1A601D4BEC
S32D0000DB6003F58053DB6B1B4A43F0225302F58052D363184B03F580531B6B164A43F0006302F580521363174B2F
S32D0000DB884FF480721A61642002F05AF8134B5B69124A23F010035361104B00221A600F4B10225A610E4803F018
S32D0000DBB0ABFA02F0ADFD02F00BFE0C4802F0A6F80B4806F097FA4FF4FA6002F051F900BF80BD00BF0070044005
S32D0000DBD80C1A0020081A0020101A002000D00340C01A0020041A0020B81B002080B500AFFEF7A5FB00BF80BD9A
S32D0000DC0080B500AFFEF79FFB00BF80BD80B500AFFEF799FB00BF80BD80B500AFFEF793FB00BF80BD80B500AFD7
S32D0000DC28FEF78DFB00BF80BD80B500AFFEF787FB00BF80BD80B500AFFEF781FB00BF80BD80B500AFFEF77BFB5E
S32D0000DC5000BF80BD80B500AFFEF775FB00BF80BD80B500AFFEF76FFB00BF80BD80B500AFFEF769FB00BF80BDED
S32D0000DC7880B500AFFEF763FB00BF80BD80B500AFFEF75DFB00BF80BD80B500AFFEF757FB00BF80BD80B500AF13
S32D0000DCA0FEF751FB00BF80BD80B500AFFEF74BFB00BF80BD80B500AFFEF745FB00BF80BD80B500AFFEF73FFBD6
S32D0000DCC800BF80BD80B500AFFEF739FB00BF80BD80B500AFFEF733FB00BF80BD80B500AFFEF72DFB00BF80BD29
S32D0000DCF080B500AFFEF727FB00BF80BD80B500AFFEF721FB00BF80BD80B500AFFEF71BFB00BF80BD80B500AF4F
S32D0000DD18FEF715FB00BF80BD80B500AFFEF70FFB00BF80BD80B500AFFEF709FB00BF80BD80B500AFFEF703FB4D
S32D0000DD4000BF80BD80B500AFFEF7FDFA00BF80BD80B500AFFEF7F7FA00BF80BD80B500AFFEF7F1FA00BF80BD67
S32D0000DD6880B500AFFEF7EBFA00BF80BD80B500AFFEF7E5FA00BF80BD80B500AFFEF7DFFA00BF80BD80B500AF8D
S32D0000DD90FEF7D9FA00BF80BD80B500AFFEF7D3FA00BF80BD80B500AFFEF7CDFA00BF80BD80B500AFFEF7C7FAC9
S32D0000DDB800BF80BD80B500AFFEF7C1FA00BF80BD80B500AFFEF7BBFA00BF80BD80B500AFFEF7B5FA00BF80BDA3
S32D0000DDE080B500AFFEF7AFFA00BF80BD80B500AFFEF7A9FA00BF80BD80B500AFFEF7A3FA00BF80BD80B500AFC9
S32D0000DE08FEF79DFA00BF80BD80B500AFFEF797FA00BF80BD80B500AFFEF791FA00BF80BD80B500AFFEF78BFA40
S32D0000DE3000BF80BD80B500AFFEF785FA00BF80BD80B500AFFEF77FFA00BF80BD80B500AFFEF779FA00BF80BDDE
S32D0000DE5880B500AFFEF773FA00BF80BD80B500AFFEF76DFA00BF80BD80B500AFFEF767FA00BF80BD80B500AF04
S32D0000DE80FEF761FA00BF80BD80B500AFFEF75BFA00BF80BD80B500AFFEF755FA00BF80BD80B500AFFEF74FFAB8
S32D0000DEA800BF80BD80B500AFFEF749FA00BF80BD80B500AFFEF743FA00BF80BD80B500AFFEF73DFA00BF80BD1A
S32D0000DED080B500AFFEF737FA00BF80BD80B500AFFEF731FA00BF80BD80B500AFFEF72BFA00BF80BD80B500AF40
S32D0000DEF8FEF725FA00BF80BD80B500AFFEF71FFA00BF80BD80B500AFFEF719FA00BF80BD80B500AFFEF713FA30
S32D0000DF2000BF80BD80B500AFFEF70DFA00BF80BD80B500AFFEF707FA00BF80BD80B500AFFEF701FA00BF80BD55
S32D0000DF4880B500AFFEF7FBF900BF80BD80B500AFFEF7F5F900BF80BD80B500AFFEF7EFF900BF80BD80B500AF7E
S32D0000DF70FEF7E9F900BF80BD80B500AFFEF7E3F900BF80BD80B500AFFEF7DDF900BF80BD80B500AFFEF7D7F9AB
S32D0000DF9800BF80BD80B500AFFEF7D1F900BF80BD80B500AFFEF7CBF900BF80BD80B500AFFEF7C5F900BF80BD94
S32D0000DFC080B500AFFEF7BFF900BF80BD80B500AFFEF7B9F900BF80BD80B500AFFEF7B3F900BF80BD80B500AFBA
S32D0000DFE8FEF7ADF900BF80BD80B500AFFEF7A7F900BF80BD80B500AFFEF7A1F900BF80BD80B500AFFEF79BF923
S32D0000E01000BF80BD0000000080B584B000AFF8600B467A60FB72FB68FA7A1A71FB6800225A711749786808F0F4
S32D0000E03899FC0346002B02D0134B7B600AE04FF07E51786808F07AFC0346002B02D04FF07E537B60786807F058
S32D0000E06031FE09A3D3E9002307F084FE02460B461046194608F060F90246FB681A60FB6818461037BD4680BD53
S32D0000E088ABAAAAAAAAAA20400000404180B582B000AF78607B685B79002B09D07B6800225A717B6819791E235D
S32D0000E0B00022034801F064FE00BF0837BD4680BD041A002080B584B000AF786039603B687F2B02DD7F23FB7341
S32D0000E0D808E03B6813F1800F02DA8023FB7301E03B68FB737B685B79FA7B9A4209D07B68FA7B5A717B681979A4
S32D0000E100FA7B1E23034801F03BFE00BF1037BD4680BD00BF041A0020B0B584B000AF786039603749386808F0B2
S32D0000E12803FC0346002B02D0334B3B6008E03349386808F017FC0346002B01D02F4B3B60386807F0BBFD044669
S32D0000E1500D467B681B68184607F0B4FD4FF00002294B07F031FF02460B462046294607F001FE02460B461046B3
S32D0000E178194608F0DDF803463B604FF00001386808F0E6FB0346002B10D0386807F096FD17A3D3E9002307F0A2
S32D0000E1A0E9FD02460B461046194608F07DF80346FB6018E0386807F085FD4FF00002134B07F0D8FD02460B46F7
S32D0000E1C8104619464FF000020D4B07F0F9FE02460B461046194608F063F80346FB60F9687868FFF76BFF00BF48
S32D0000E1F01037BD46B0BD00BF52B81E85EB51F43F0000C8C20000C842000059400000604080B483B000AF034643
S32D0000E2180A46FB711346BB71BB79002B03D1134B00221A7002E0114B01221A703823FB710E4B1A78FB791343F3
S32D0000E240FB710D4B9B78DBB20B4A43F01003DBB29370094B9B78DBB2074A43F02003DBB29370054AFB791371AF
S32D0000E26800BF0C37BD4680BC704700BFE01700200060064080B483B000AF01237B607B68312B04DC00BF7B683E
S32D0000E29001337B60F7E700BF0C37BD4680BC704780B582B000AF03460A46FB711346BB71134B1B78002118466B
S32D0000E2B8FFF7AAFF00F024F8104AFB79137100F01FF80E4ABB79137100F01AF80B4B9B78DBB20A4A23F02003A2
S32D0000E2E0DBB29370074B9B78DBB2064A23F01003DBB29370FFF7C2FF00BF0837BD4680BDE117002000600640D5
S32D0000E30880B483B000AF174B1B78002B24D100237B60154BDB78DBB203F00203002B0CBF01230023DBB2002B91
S32D0000E3300DD07B6842F21072934203DD0B4B01221A7004E07B6801337B6000BFE5E7084BDB78DBB2064A43F07A
S32D0000E3580203DBB2D37000E000BF0C37BD4680BC704700BFE21700200060064080B582B000AF0346FB71FB792D
S32D0000E380184600F05FF800BF0837BD4680BD80B582B000AF03460A46FB711346BB7100F035F8FB795B00DBB273
S32D0000E3A81846FFF7E3FFBB791846FFF7DFFF00F037F800BF0837BD4680BD80B500AFFF2000F03CF80346184680
S32D0000E3D080BD80B584B000AF0346FB7100F016F8FB795B005BB243F001035BB2DBB21846FFF7C0FFFFF7E5FF7D
S32D0000E3F80346FB7300F014F8FB7B18461037BD4680BD000080B400AF044B9B68034A43F48013936000BFBD46E8
S32D0000E42080BC704740F00F4080B400AF044B5B68034A43F48013536000BFBD4680BC704740F00F4080B485B000
S32D0000E44800AF0346FB710023BB73164BDB6A03F00043012B0CBF01230023DBB2002B03D0FB7B0133FB73F0E75D
S32D0000E4700E4BDB6A0D4A43F00043D3620B4AFB7953630A4BDB6A03F40033002B0CBF01230023DBB2002B00D0D6
S32D0000E498F3E7044B9B6BBB73BB7B18461437BD4680BC704700C00A4080B582B000AF204B03F580531B6B1E4AE0
S32D0000E4C043F4805302F5805213631C4B4FF480721A651B4B5B691A4A43F480135361FFF7A3FF164B4FF4007210
S32D0000E4E85A65144B4FF400729A65124B4FF40072DA65124B124A1A60104B124ADA6000237B607B68092B06DCC8
S32D0000E510FF20FFF72FFF7B6801337B60F5E704A1D1E9000101F0BAFC00BF0837BD4680BD9A9999999999B93FF8
S32D0000E5380070044000A0044040F00F4000C00A40000C00800500003E90B486B000AFF860B9607A60FB68534A51
S32D0000E56093420AD1524B03F580535B6B504A43F4806302F58052536345E0FB684D4A93420AD14B4B03F580534C
S32D0000E5885B6B494A43F4006302F58052536336E0FB68474A93420AD1434B03F580535B6B414A43F4805302F58E
S32D0000E5B08052536327E0FB68404A93420AD13C4B03F580535B6B3A4A43F4005302F58052536318E0FB683A4A8D
S32D0000E5D893420AD1344B03F580539B6A324A43F4806302F58052936209E02F4B03F580539B6A2D4A43F400637E
S32D0000E60002F580529362FB68DB78DBB223F00C03DAB2FB68DA70FB6800229A70BB684FF47A7203FB02F27B68DA
S32D0000E6281B0192FBF3F39CB2FB681B78DBB223F01F03FB75230A9BB2DBB203F01F03DAB2FB7D1343DAB2FB685A
S32D0000E6501A70E2B2FB685A70BB684FF4FA4203FB02F27B681B0192FBF3F39AB263019BB2D31A9CB2FB689B7A9B
S32D0000E678DBB223F01F03FB75E3B203F01F03DAB2FB7D1343DAB2FB689A72FB68DB78DBB243F00C03DAB2FB68CF
S32D0000E6A0DA7000BF1837BD4690BC704700A006400070044000B0064000C0064000D0064000A00E4080B483B0ED
S32D0000E6C800AF78607B681B79DBB203F02003002B0CBF01230023DBB2002B00D0F2E77B68DB79DBB218460C3780
S32D0000E6F0BD4680BC704780B483B000AF78600B46FB707B681B79DBB25BB2DB43DBB2DB09DBB2002B00D0F4E759
S32D0000E7187B68FA78DA7100BF0C37BD4680BC704780B487B000AFF860B9607A60FB687B617B685A1E7A60002B37
S32D0000E74014BF01230023DBB2002B06D07B695A1C7A61BA68D2B21A70EEE700BF1C37BD4680BC704780B584B058
S32D0000E76800AF786039607B681B6BFB60FA683B689A4252D07B681B79002B35D07B6858787B6803F13401012312
S32D0000E790FA6801F0F7F80346002B14BF01230023DBB2002B01D001233CE07B6800221A717B685A6A7B681B6A23
S32D0000E7B81344FA689A4217D27B68DB78FB72FB7A012B11D97B681B6AFA681344FB607B6858787B6803F134014C
S32D0000E7E00123FA6801F0CEF8FB7A013BFB72EAE73B68002B15D07B6858787B6803F1340101233A6800F0DAFFDE
S32D0000E8080346002B14BF01230023DBB2002B01D0012303E07B683A681A63002318461037BD4680BD80B584B051
S32D0000E83000AF786000217868FFF794FF0346FB73FB7B002B40F093807B681B78032B7DD17B685B79002B79D0F1
S32D0000E8587B6800221A637B6834334FF4007200211846FFF75DFF7B68552283F832227B68AA2283F833227B68B5
S32D0000E880522283F834207B68522283F835207B68612283F836207B68412283F837207B68722283F818227B68A2
S32D0000E8A8722283F819227B68412283F81A227B68612283F81B227B681B69DAB27B6883F81C227B681B699BB29A
S32D0000E8D01B0A9BB2DAB27B6883F81D227B681B691B0CDAB27B6883F81E227B681B691B0EDAB27B6883F81F220C
S32D0000E8F87B68DB68DAB27B6883F820227B68DB689BB21B0A9BB2DAB27B6883F821227B68DB681B0CDAB27B68D2
S32D0000E92083F822227B68DB681B0EDAB27B6883F823227B6858787B6803F134017B685A69012301F01FF87B6818
S32D0000E94800225A717B685B7800220021184601F0E1F80346002B14BF01230023DBB2002B01D00123FB73FB7B74
S32D0000E97018461037BD4680BD80B582B000AF78600B467B807B68002B08D07B681B78002B04D07B68DB887A88B7
S32D0000E9989A4201D0092311E07B685B78184601F03BF9034603F00103002B14BF01230023DBB2002B01D003231A
S32D0000E9C000E0002318460837BD4680BD80B586B000AF78607B681A687B689B8819461046FFF7CAFF0346FB75BF
S32D0000E9E8FB7D002B40F0AC807B689B7903F02003002B00F0A5807B689B7903F04003002B1BD07B681B6858783C
S32D0000EA107B6803F128017B689A69012300F0B2FF0346002B14BF01230023DBB2002B01D001238AE07B689B7991
S32D0000EA3823F04003DAB27B689A717B681A687B68DB6919461046FFF789FE0346FB75FB7D002B75D17B681B6A18
S32D0000EA603B613B690B331A783B690B3342F02002D2B21A707B68DA683B691C33D2B21A707B68DB689BB21B0A76
S32D0000EA889AB23B691D33D2B21A707B68DB681A0C3B691E33D2B21A707B68DB681A0E3B691F33D2B21A707B688E
S32D0000EAB01A693B691A33D2B21A707B681B699BB21B0A9AB23B691B33D2B21A707B681B691A0C3B691433D2B295
S32D0000EAD81A707B681B691B0C9BB21B0A9AB23B691533D2B21A700023FB603B691633FA68D2B21A70FB689BB2B5
S32D0000EB001B0A9AB23B691733D2B21A70FB681A0C3B691833D2B21A70FB681A0E3B691933D2B21A707B689B7974
S32D0000EB2823F02003DAB27B689A717B681B6801221A717B681B681846FFF774FE0346FB75FB7D18461837BD46EE
S32D0000EB5080BD80B584B000AF78607868FFF736FF0346FB73FB7B002B02D17B6800221A60FB7B18461037BD4697
S32D0000EB7880BD000080B588B000AF7860396080233B610F23FB604FF0FF337B610223FB61FB69B3F5807F23D805
S32D0000EBA00123BB61BB69102B1AD8FB69BA6902FB03F33A6803FB02F27B68D31ABB60BB68002B09DBBB687A6985
S32D0000EBC89A4205D9BB687B61FB693B61BB69FB60BB690133BB61E1E7FB695B00FB61D7E71D4BDB6A1C4A23F0AC
S32D0000EBF00803D3621A4BDB6A23F47F2323F47F63BB613B695B081B029AB2FB68013B1B01DBB21A43BB691343B0
S32D0000EC18114A43F46023D3620F4B5B6A03F00803002B0CBF01230023DBB2002B03D00A2001F01AF9F0E7084B47
S32D0000EC40DB6A074A43F00803D362054B1B6B044A43F48013136300BF2037BD4680BD00BF00100B4080B582B062
S32D0000EC6800AF786039607B6800221A60414B424ADA62404BDB6A03F08073002B14BF01230023DBB2002B00D008
S32D0000EC90F3E73A4B0022C3F8C020384B4FF481325A60364B28229A62344B4FF001125A643B689B683349184631
S32D0000ECB8FFF760FF2F4B5B6A03F00303002B14BF01230023DBB2002B00D0F3E72C4B40F243421A602A4B40F2AB
S32D0000ECE043425A60284B4FF488629A60264B40F24342DA60244B40F243421A61224B40F243425A61214B03F5E7
S32D0000ED0880531B6B1F4A43F4003302F580521363184B4FF6FF721A63164B1B4A5A63154BDB6A144A43F00063C0
S32D0000ED30D362124BDB6A03F00063002B14BF01230023DBB2002B00D0F3E70C4B5B6A03F48033002B14BF0123F9
S32D0000ED580023DBB2002B02D07B6801221A60054B1B6B044A43F080031363002318460837BD4680BD00100B40B5
S32D0000ED800080000160CC050000D0044000700440B3007F0080B400AF064B5A6A40F207331340002B14BF0123E0
S32D0000EDA80023DBB21846BD4680BC704700100B4080B485B000AF7860074B1B6B7A681340FB60FB68002B00D127
S32D0000EDD0F6E7FB6818461437BD4680BC704700BF00100B4080B584B000AF78607B681B7803F03F03764A52F877
S32D0000EDF82330FB60FB68002B05D17B681B78002B01D00123DCE0714B1B6B704A43F0800313636E4B5B6A03F0F0
S32D0000EE200103002B14BF01230023DBB2002B00D0F3E7684A7B685B689360FB6823F44003FB607B685B789B0560
S32D0000EE4803F44003FA681343FB607B685B78022B03D1FB6843F40013FB607B685B78042B16D1FB6803F44033F7
S32D0000EE70B3F5003F08D1FB6823F44033FB60FB6843F44033FB6007E0FB6823F44033FB60FB6843F40033FB60AD
S32D0000EE984E4B5B684D4A9BB253607B68DB68002B2AD0FB6803F44033B3F5403F03D0FB6843F40013FB607B685C
S32D0000EEC01B7A002B03D0FB6843F01003FB607B68DB68012B03D9FB6843F02003FB607B68DB68B3F1FF3F0BD068
S32D0000EEE83A4B5A687B68DB681B04384913434B60FB6843F00203FB60344B00221A60334AFB68D3603248FFF75A
S32D0000EF1053FF0346012B14BF01230023DBB2002B09D02C4B1B6B2B4A43F4702343F001031363012348E0274BBA
S32D0000EF381B6B03F08003002B14BF01230023DBB2002B07D0214B1B6B204A43F001131363012335E01D4B1B6B9B
S32D0000EF6003F48033002B14BF01230023DBB2002B08D0184B1B6B174A43F0011313634FF0FF3321E0FB6803F431
S32D0000EF884033002B15D0114B1A697B681A61FB6803F44033B3F5803F0BD10C4B5A697B685A610A4B9A697B6898
S32D0000EFB09A61084BDA697B68DA61064B1B6B054A43F001031363002318461037BD4680BDB4D0010000100B40C9
S32D0000EFD801000E0080B592B000AF7860396000237B643B68BB63994B7B637B6B002B02D140F601235FE3964B7F
S32D0000F0003B633B6B002B02D140F60B2357E33B6B1B68FB62FB6A002B02D140F60B234EE37B6841F2093293425E
S32D0000F02800F23F837B68B3F5985F08D87B68032B00F01A837B68092B00F0098331E37B68A3F59853013B082B8A
S32D0000F05000F22B8301A252F823F000BF81F000006DF30000C9F5000083F30000C1F30000E7F400002FF500007B
S32D0000F07871F400008BF400007649786BFFF7EEFD78647B6C002B40F01083002387F84330002387F82B3000231D
S32D0000F0A087F82A30002387F82930002387F84230002387F8283000233B7200237B720023FB6000233B7400230D
S32D0000F0C87B6107F108031846FFF788FE0346002B14BF01230023DBB2002B02D001237B64E8E240F24C4000F0CE
S32D0000F0F0BFFE08233B7200237B724FF4D573FB6000233B7400237B6107F108031846FFF769FEF863FB6B002BEC
S32D0000F11809D1BA69FB689A4202D001237B64C9E2012387F84230012387F8283097F82830002B00F0A58037237C
S32D0000F1403B7200237B720023FB6000233B7400237B6107F108031846FFF744FEF863FB6B002B02D001237B643B
S32D0000F168A8E269233B7200237B720023FB6000233B7400237B6107F108031846FFF72EFE0346002B14BF012369
S32D0000F1900023DBB2002B02D001237B648EE2BB6903F44013002B6FD00023FB630A2000F05FFEFB6B0133FB6369
S32D0000F1B837233B7200237B720023FB6000233B7400237B6107F108031846FFF707FE0346002B14BF01230023D9
S32D0000F1E0DBB2002B02D001237B6428E069233B7200237B7297F84230002B02D0184BFB6002E04FF44013FB6094
S32D0000F20800233B7400237B6107F108031846FFF7E5FD0346002B14BF01230023DBB2002B02D001237B6406E0CD
S32D0000F230BB69002B03DBFB6B632B00D8B6E77B6C002B40F03882FB6B632B0BD9002387F8423019E0F81700200A
S32D0000F258FC190020A8D0010000003040012387F8433097F84230002B0AD0002387F84230BB6903F08043002B35
S32D0000F28002D0012387F8423097F82A30002B02D07B6B07221A6097F82930002B02D07B6B08221A6097F82B30B1
S32D0000F2A8002B02D07B6B04221A6097F84330002B09D07B6B02221A6097F84230002B02D07B6B03221A6097F819
S32D0000F2D02B30002B0DD097F84330002B09D07B6B05221A6097F84230002B02D07B6B06221A60924B00221A6021
S32D0000F2F8904B00225A608F4B00229A608D4B0022DA608C4B00221A618A4B00225A61FB6A9A68FB6A5B681946F3
S32D0000F3201046FFF72BFC854B40F243421A60834B40F243425A60814B4FF488629A607F4B40F24342DA607D4B96
S32D0000F34840F243421A617B4B40F243425A617A4B03F580531B6B784A43F4003302F580521363A7E1B86BFFF70B
S32D0000F37039FDF863FB6B002B00F09F8102237B649BE1BB6B002B02D10C237B6496E16D4BDB6A1B0A5B0003F4A0
S32D0000F398FF73FB63694BDB6A1B0903F00F035A1CFB6B02FB03F3FB63FB6A9A68FB6BB2FBF3F2BB6B1A607DE1CB
S32D0000F3C0BB6B002B02D10C237B6477E1BB6B1B68002B02D10C237B6470E1FFF7DBFC0346002B0CBF012300233C
S32D0000F3E8DBB2002B3CD0534B00221A60514B00225A60504B00229A604E4B0022DA604D4B00221A614B4B0022E8
S32D0000F4105A61FB6A9A68BB6B1B6819461046FFF7ADFB464B40F243421A60444B40F243425A60424B4FF4886234
S32D0000F4389A60404B40F24342DA603E4B40F243421A613C4B40F243425A613B4B03F580531B6B394A43F40033B8
S32D0000F46002F58052136329E140F60A237B6425E1BB6B002B02D10C237B641FE1314B5B68C3F30C02BB6B1A6018
S32D0000F48818E1BB6B002B02D10C237B6412E1FFF77DFC0346002B0CBF01230023DBB2002B19D0BB6B1B68B3F551
S32D0000F4B0805F02D30C237B6400E1224B5B68214A23F4FF5323F01F0353601E4B5A68BB6B1B68C3F30C031B49A2
S32D0000F4D813434B60EEE040F60A237B64EAE0BB6B002B02D10C237B64E4E0144B9B6A5B0803F00303FB63FB6BB1
S32D0000F500002B03D1BB6B00221A60D7E0FB6B012B03D1BB6B01221A60D0E0FB6B102B03D1BB6B02221A60C9E0AA
S32D0000F52805237B64C6E0BB6B002B09D10C237B64C0E000BF00D004400070044000100B40FFF724FC0346002BC3
S32D0000F5500CBF01230023DBB2002B31D0BB6B1B68002B0AD1584B9B6A574A23F006039362554B554A9B6A936280
S32D0000F578A0E0BB6B1B68012B0CD1514B9B6A504A23F0060393624E4B9B6A4D4A43F0020393628FE0BB6B1B686D
S32D0000F5A0022B0AD1484B9B6A474A23F006039362454B454A9B6A936280E005237B647DE040F60A237B6479E083
S32D0000F5C8BB6B002B02D10C237B6473E03C4BDB6A3B4A43F00063D362394BDB6A03F00063002B14BF0123002310
S32D0000F5F0DBB2002B00D0F3E7334B1B6B03F08003002B14BF01230023DBB2002B08D02E4B1B6B2D4A43F0800310
S32D0000F61813637B6B00221A60294B5B6A03F48033002B14BF01230023DBB2002B07D07B6B1B68002B06D17B6BC4
S32D0000F64001221A6002E07B6B00221A607B6B1A68BB6B1A6032E0BB6B1C221A60BB6B043304221A60BB6B083345
S32D0000F6684FF41E721A6025E00220FFF7A1FB144B1B6B03F4E003002B14BF01230023DBB2002B07D00E4B1B6BFC
S32D0000F6900D4A43F4E003136304237B640A4B1B6B094A43F03203136308E040F609237B6404E000BF02E000BFE6
S32D0000F6B800E000BF7B6C18464837BD4680BD00BF00100B4080B489B000AF786039607B687B61364B3B613B695A
S32D0000F6E0002B01D100235FE03B691B68022B0BD03B691B68032B07D03B691B68072B03D03B691B68082B0BD1E0
S32D0000F7082B4B5B6A03F00403002B14BF01230023DBB2002B00D0F3E73B68FB61FB69002B3DD0FB69B3F5007FD1
S32D0000F73028BF4FF40073FB60FB6803339B08BB61BB69002B2AD01C4B1B6B03F4E003002B14BF01230023DBB279
S32D0000F758002B09D0164B1B6B154A43F4E00343F02003136300231BE0114B5B6A03F40063002B0CBF012300237D
S32D0000F780DBB2002B00D0F3E70B497B691A1D7A610A6A1A60BB69013BBB61D1E7FA69FB68D31AFB61BEE70123B5
S32D0000F7A818462437BD4680BC704700BFF817002000100B4080B58EB000AFB9607A601A460346FB731346BB7388
S32D0000F7D0414B7B63FB7B002B02D1BB7B002B01D1042375E03D4B1B78DBB203F00103002B14BF01230023DBB20D
S32D0000F7F8002B01D0032367E0BB68002B01D1002362E07B6B1B7B002B02D17B685B027B60BB7B012B28D11123D1
S32D0000F8203B7500237B757B68BB6101233B77BB7B3B6207F11403194641F20230FFF7CEFB0346002B0CBF01235A
S32D0000F8480023DBB2002B38D04FF40071B868FFF739FF0346002B14BF01230023DBB2002B2BD00023BB7328E013
S32D0000F87012233B7500237B757B68BB6101233B77BB7B3B6207F11403194641F20230FFF7A5FB0346002B0CBF22
S32D0000F89801230023DBB2002B0FD0BB7B5B021946B868FFF70FFF0346002B14BF01230023DBB2002B01D0002314
S32D0000F8C0BB73BB7B002B01D0012300E0002300BF18463837BD4680BDE41700201000002080B487B000AF78608A
S32D0000F8E839607B68FB603B687B617B69002B3DD07B69B3F5007F28BF4FF400733B617A693B69D31A7B613B6948
S32D0000F91003339B083B613B69002BEAD0184B1B6B03F4E003002B14BF01230023DBB2002B0AD0134B1B6B124AF1
S32D0000F93843F4E00343F0100313634FF0FF3316E00D4B5B6A03F48063002B0CBF01230023DBB2002B00D0F3E7CE
S32D0000F960FB681A1DFA60064A1B6813623B69013B3B61D0E7012318461C37BD4680BC704700100B4080B58EB071
S32D0000F98800AFB9607A601A460346FB731346BB735D4B7B63FB7B002B02D1BB7B002B01D10423ADE0594B1B78F9
S32D0000F9B0DBB203F00103002B14BF01230023DBB2002B01D003239FE0524B1B78DBB203F00403002B14BF012359
S32D0000F9D80023DBB2002B01D0022391E0BB68002B01D100238CE07B6B1B7B002B02D17B685B027B60BB7B012B19
S32D0000FA0028D118233B7500237B757B68BB6100233B77BB7B3B6207F11403194641F20230FFF7DCFA0346002B27
S32D0000FA280CBF01230023DBB2002B38D04FF40071B868FFF751FF0346002B14BF01230023DBB2002B2BD0002360
S32D0000FA50BB7328E019233B7500237B757B68BB6100233B77BB7B3B6207F11403194641F20230FFF7B3FA0346ED
S32D0000FA78002B0CBF01230023DBB2002B0FD0BB7B5B021946B868FFF727FF0346002B14BF01230023DBB2002B18
S32D0000FAA001D00023BB730D233B7500237B757B6B1B69BB6100233B7700233B6207F11403194641F20230FFF73F
S32D0000FAC889FA0346002B14BF01230023DBB2002B01D0012314E07A6A0D4B1340002B01D001230DE07B6A03F4E6
S32D0000FAF0F853B3F5106F00D0D5E7BB7B002B01D0012300E0002300BF18463837BD4680BDE4170020100000207A
S32D0000FB180880D9FF80B58CB000AF03463A60FB710B46BB713A4BBB62FB79002B01D0042369E0012387F82F30EF
S32D0000FB40364B1B78DBB203F00103002B14BF01230023DBB2002B01D0032358E0BB79032B50D801A252F823F049
S32D0000FB6879FB000081FB000091FB0000A1FB0000002387F82F3044E0BB6A9A683B681A60002387F82F303CE0D1
S32D0000FB903B684FF400721A80002387F82F3034E009233B7200237B72BB6A1B69FB6000233B7400237B6107F18A
S32D0000FBB80803194641F20230FFF70CFA0346002B14BF01230023DBB2002B01D001231AE07B6A03F44003002BD5
S32D0000FBE00CD13B6A9B0C03F07F035A1C7B6A1B0A03F00303013B9A403B681A60002387F82F3002E0042387F824
S32D0000FC082F3097F82F3018463037BD4680BD00BFE41700201000002080B483B000AF0346FB71FB79002B01D037
S32D0000FC30012302E0034B1B78DBB218460C37BD4680BC70471000002080B483B000AF7860164B03F580539B6B4B
S32D0000FC58144A43F0010302F580529363124A7B689360114B05225A600F4B1B680E4A43F0010313600C4B1B6802
S32D0000FC8003F08003002B0CBF01230023DBB2002B00D0F3E7064B1B68054A23F00103136000BF0C37BD4680BC53
S32D0000FCA8704700BF007004400000044080B582B000AF786039607B68012B07D13B684FF6FF72934202D1034806
S32D0000FCD000F00EF800BF0837BD4680BD041A002080B500AF4FF6FF710120FFF7E3FF80BD80B483B000AF7860D7
S32D0000FCF87B6800221A707B6818460C37BD4680BC7047000080B582B000AF78607B681B7883F00103DBB2002B42
S32D0000FD2021D0134B03F580531A464FF400639362104B4FF440721A620E4B4FF440725A620D4B1B68DA0F1344AF
S32D0000FD485B104FF4614219460A48FEF7FDFB642000F08AF87B6801221A70012300E0002318460837BD4680BD14
S32D0000FD700070044000D00440081A002000B00E4080B582B000AF7860084611461A460346FB700B46BB701346E1
S32D0000FD987B707F210E48FEF7AAFC08210C48FEF7A6FCFB7819460A48FEF7A1FCBB7819460748FEF79CFC7B7896
S32D0000FDC019460548FEF797FCFF210348FEF793FC00BF0837BD4680BD00B00E4080B487B000AFF860B9607A6051
S32D0000FDE8FB681F4AA2FB03239B09BA6813447B61FB681B4AA2FB031292094FF47A7101FB02F29B1AFB60FB68BF
S32D0000FE10DB03154AA2FB03239B097A6813443B613B69DB0B7A6913447B613B69C3F30E033B610E4B1B687A69E5
S32D0000FE389A4209D80B4B1B687A699A4206D1094B5B683A699A4201D9012300E00023002B00D0EAE700BF1C37FB
S32D0000FE60BD4680BC704700BFD34D621000D0034080B584B000AF7860074B1B68FB60064B5B68BB607B68BA68C6
S32D0000FE88F9681846FFF7A6FF00BF1037BD4680BD00D0034080B584B000AFC7E900010E4B1B68FB600C4B5B687F
S32D0000FEB0BB604FF000020B4BD7E9000105F05AFF02460B461046194606F016FA0346BA68F9681846FFF782FF6E
S32D0000FED800BF1037BD4680BD00D0034000408F4080B584B000AF134B1B68FB60114B5B68BB60F86805F0C0FEF3
S32D0000FF0002460B46C7E90023B86805F0B9FE4FF000020B4B06F058F802460B46D7E9000105F072FD02460B4667
S32D0000FF28C7E90023D7E90023104619461037BD4680BD00BF00D003400000E04080B483B000AF0B4B1B684FF495
S32D0000FF507A7202FB03F37B60074B5B684FF47A7202FB03F3DB0B7A6813447B607B6818460C37BD4680BC70471E
S32D0000FF7800D0034080B584B000AF78600B46FB700B23FB73FA7BFB781946786800F094F87B6818461037BD46D2
S32D0000FFA080BD000080B485B000AF78607B68103B002B00DA1F335B11FB60FB68022B53D0FB68022B75DCFB68C3
S32D0000FFC8002B03D0FB68012B25D06EE0394BD3F880217B68103B594203F01F0301F01F0158BF4B42012101FA9B
S32D0000FFF003F332491343C1F88031304B1A687B68103B594203F01F0301F01F0158BF4B42012101FA03F329499D
S32D0001001813430B6049E0274BD3F884217B68103B594203F01F0301F01F0158BF4B42012101FA03F31F49134389
S32D00010040C1F884311D4B5A687B68103B594203F01F0301F01F0158BF4B42012101FA03F3164913434B6024E0EF
S32D00010068144BD3F888217B68103B594203F01F0301F01F0158BF4B42012101FA03F30D491343C1F888310B4B7C
S32D000100909A687B68103B594203F01F0301F01F0158BF4B42012101FA03F3044913438B6000BF00BF1437BD463F
S32D000100B880BC704700E100E080B584B000AF78600B46FB701346BB707B68FA781A70BB78FB737B681B781A46DF
S32D000100E0574B9B5C042B00F2A68001A252F823F005010100510101009D01010035020100E9010100FB7B1B0460
S32D0001010803F470234D497A68127810464C4A52F8202043F4897343F0010341F82230494B5A697B681B781946A5
S32D00010130454B53F8213003F01F03012101FA03F3DB43424913404B616720FFF72BFF72E0FB7B1B0403F470238C
S32D000101583D497A6812781046394A52F8202043F4897343F0010341F82230384B5A697B681B781946324B53F84B
S32D00010180213003F01F03012101FA03F3DB43314913404B616820FFF705FF4CE0FB7B1B0403F470232C497A681C
S32D000101A812781046264A52F8202043F4897343F0010341F82230274B5A697B681B7819461F4B53F8213003F056
S32D000101D01F03012101FA03F3DB43204913404B616920FFF7DFFE26E0FB7B1B0403F470231B497A68127810469E
S32D000101F8134A52F8202043F4897343F0010341F82230164B5A697B681B7819460C4B53F8213003F01F030121D9
S32D0001022001FA03F3DB430F4913404B616B20FFF7B9FE00E000BF00BF1037BD4680BD00BFB4D101000090044013
S32D00010248F8D1010000F00F4000A0044040F00F4000B0044080F00F4000D0044000F10F40B0B48BB000AF224B59
S32D000102703C1D1D460FCD0FC495E80F0084E80F0000237B627B6A072B30DC1C4BD3F8A0207B6A9B0028333B447E
S32D0001029853F8243C012101FA03F31340002B14BF01230023DBB2002B18D0134A7B6A52F823305A1C10497B6AAE
S32D000102C041F823200D4BD3F8A0207B6A9B0028333B4453F8243C012101FA03F307491340C1F8A0307B6A013353
S32D000102E87B62CBE700BF2C37BD46B0BC704700BFFCD2010000A00440341A0020B0B489B000AF224B3C1D1D46BB
S32D000103100FCD0FC495E8030084E803000023FB61FB69052B30DC1C4BD3F8A020FB699B0020333B4453F81C3C9B
S32D00010338012101FA03F31340002B14BF01230023DBB2002B18D0FB690833124A52F823200132104941F82320BB
S32D000103600D4BD3F8A020FB699B0020333B4453F81C3C012101FA03F307491340C1F8A030FB690133FB61CBE732
S32D0001038800BF2437BD46B0BC704700BF1CD3010000B00440341A0020B0B48DB000AF234B3C461D460FCD0FC4A3
S32D000103B00FCD0FC495E8070084E807000023FB62FB6A0A2B30DC1C4BD3F8A020FB6A9B0030333B4453F8303CC7
S32D000103D8012101FA03F31340002B14BF01230023DBB2002B18D0FB6A0E33124A52F823200132104941F8232014
S32D000104000D4BD3F8A020FB6A9B0030333B4453F8303C012101FA03F307491340C1F8A030FB6A0133FB62CBE76A
S32D0001042800BF3437BD46B0BC704700BF34D3010000900440341A0020B0B487B000AF214B3C461D460FCD0FC402
S32D000104502B68236000237B617B69042B30DC1C4BD3F8A0207B699B0018333B4453F8183C012101FA03F3134009
S32D00010478002B14BF01230023DBB2002B18D07B691933124A52F823200132104941F823200D4BD3F8A0207B6988
S32D000104A09B0018333B4453F8183C012101FA03F307491340C1F8A0307B6901337B61CBE700BF1C37BD46B0BCC3
S32D000104C8704700BF60D3010000D00440341A002080B483B000AF78607B681B781A46044B53F8223018460C3788
S32D000104F0BD4680BC704700BF341A002080B483B000AF78607B681B781946044B002243F8212000BF0C37BD4605
S32D0001051880BC7047341A002080B483B000AF78600B46FB707B68FA781A707B6818460C37BD4680BC7047000050
S32D0001054080B586B000AF78607B681B781A463E4B53F822303B617B681B781A463B4B9B5CFB733B69DBB203F01D
S32D000105681F03DAB2384B1A723B69DBB203F01F03DAB2354B5A72354B1022C3F88820FB7B002B13D130493248FC
S32D0001059000F05AFA304B1B6803F08003802B14BF01230023DBB2002B00D0F3E72A4B1B697B6112E026492948B6
S32D000105B800F046FA274B1B6803F08003802B14BF01230023DBB2002B00D0F3E7214B1B697B611E4BD3F8883199
S32D000105E01C4A43F01003C2F888311A4B9B68194A43F0100393607B699BB2184605F040FB0DA3D3E9002305F086
S32D00010608B5FB02460B46104619460BA3D3E9002305F0D6FC02460B461046194605F088FE0346BB60BB681846C3
S32D000106301837BD4680BD00BFA4703D0AD7A30A4000000000E0FFEF4078D20100D4D10100141A002000E100E020
S32D0001065800B0034000B00B4080B586B000AF78607B681B781A46234B53F822303B617B681B781A46204B9B5CDE
S32D00010680FB733B69DBB203F01F03DAB21D4B1A723B69DBB203F01F03DAB21A4B5A72FB7B002B13D117491848CF
S32D000106A800F0CEF9164B1B6803F08003802B14BF01230023DBB2002B00D0F3E7104B1B697B6112E00D490F4891
S32D000106D000F0BAF90D4B1B6803F08003802B14BF01230023DBB2002B00D0F3E7074B1B697B617B69184618379D
S32D000106F8BD4680BD78D20100D4D10100241A002000B0034000B00B4098B500AF204B5C221A701F4B10225A7081
S32D000107201D4B41F234225A801B4B45F278629A80194B10229A71184B0722DA71164B4FF4C022DA60144B1F2276
S32D000107481A72134B1F225A721149124800F078F90F49114800F074F90F4800F0D2F80D4800F0CFF80A490C48A4
S32D0001077000F06AF90849094800F066F9094A064B14460FCB84E80F00064B5C221A70054B0422DA7100BF98BD95
S32D00010798141A002000B0034000B00B40241A002080B500AF064B1B680133054A136000F03DF8044B0122C3F898
S32D000107C00C2100BF80BD00BFB81A00200070034080B500AF0C4B01221A600C4800F01AF8094B0322C3F80821F2
S32D000107E8094BD3F88831084A43F01003C2F88831054B9B68044A43F01003936000BF80BD00700340A08601004F
S32D0001081000E100E080B483B000AF7860044A7B68C2F8003100BF0C37BD4680BC704700BF0070034080B584B01B
S32D0001083800AF174B1B68FB60FB68002B24D0FB685B78FB71FB689B68184600F023F80346BB71BB79002B13D0F8
S32D00010860FB685B68012B0FDDFB689B681B69BB60BB68002B08D0BB685B685A1CBB685A60BB681B69BB60F3E72B
S32D00010888FB68DB68FB60D7E700BF1037BD4680BDB41A002080B584B000AF78607868FFF7DBFEF8607B689B6970
S32D000108B05B78FB72FB7A002B0FD17B68DB68FA689A420ADD7B689B6901225A707B685B685A1C7B685A6001235D
S32D000108D813E0FB7A012B0FD17B689B68FA689A420ADA7B689B6900225A707B685B685A1C7B685A60012300E0E5
S32D00010900002318461037BD4680BD80B485B000AF78607B681B6A23F040027B681A627B685B6A23F00B027B6809
S32D000109285A627B685B6A43F007027B685A627B685B6A43F080027B685A627B681B6803F08003002B0CBF01236F
S32D000109500023DBB2002B00D0F3E77B685B6A03F04003402B0CBF01230023DBB2002B01D0012364E00023FB8108
S32D000109787B68DB6CFB817B689B6C9AB2FB891344FB817B685B6C9AB2FB891344FB817B681B6C9AB2FB8913443F
S32D000109A0FB817B68DB6B9AB2FB891344FB817B689B6B9AB2FB891344FB81FB895B08FB81FB896FEA43436FEA35
S32D000109C85343FB81FA897B68DA620023FB817B68DB6EFB817B689B6E9AB2FB891344FB817B685B6E9AB2FB89FA
S32D000109F01344FB817B681B6E9AB2FB891344FB817B68DB6D9AB2FB891344FB817B689B6D9AB2FB891344FB819A
S32D00010A18FB895B08FB81FB896FEA43436FEA5343FB81FA897B681A637B685B6A23F080027B685A62002318463E
S32D00010A401437BD4680BC704780B483B000AF786039603B681B781A467B689A603B685B781A467B68DA603B68B6
S32D00010A685B881A467B689A613B689B881A467B68DA613B689B791A467B681A623B68DB791A467B685A623B68EB
S32D00010A90DA687B681A653B681B7A1A467B681A603B685B7A1A467B685A6000BF0C37BD4680BC704780B483B0CA
S32D00010AB800AF78607B6818460C37BD4680BC704780B582B000AF786039607B68012B07D13B684FF6FF72934272
S32D00010AE002D10348FFF7E6FF00BF0837BD4680BDBC1A002080B500AF4FF6FF710120FFF7E3FF80BD80B483B084
S32D00010B0800AF78600B46FB707B68FA781A707B684FF4FA725A807B6840F6C4129A807B68034A9A607B681846BC
S32D00010B300C37BD4680BC7047000080BF80B483B000AF786039603B68B3F5FA7F04DB3B6840F6C412934204DD8F
S32D00010B587B684FF4FA725A8004E03B689AB27B685A8000BF00BF0C37BD4680BC704780B483B000AF7860396034
S32D00010B803B68B3F5FA7F04DB3B6840F6C412934204DD7B6840F6C4129A8004E03B689AB27B689A8000BF00BFE7
S32D00010BA80C37BD4680BC70472DE9904385B000AF786039604FF00001386805F0B5FE0346002B02D04FF0000397
S32D00010BD03B603249386805F0C9FE0346002B01D02E4B3B607B689B681946386805F096FE0346002B00D04BE04E
S32D00010BF87B683A689A607B685C887B689B881A467B685B88D31A184605F046F84FF00002214B05F0D5F9024626
S32D00010C200B4690469946386805F04CF802460B464046494605F09EF802460B461046194605F05AFB03469BB25F
S32D00010C482344FB81FB897B73FB891B0A9BB23B737F211248FDF74BFD05211048FDF747FD7B681B7819460D486E
S32D00010C70FDF741FD3B7B19460A48FDF73CFD7B7B19460848FDF737FDFF210648FDF733FD00BF1437BD46BDE87E
S32D00010C98908300BF000034430080664000B00E4080B582B000AF7860B84B4FF48072DA60B74B4FF480729A642B
S32D00010CC0B54B4FF480721A64B34B4FF480725A64B14B4FF48072DA60B04B5B69AF4A43F008035361AE4B5B698F
S32D00010CE8AD4A43F480235361AB4B5B69AA4A43F480335361A84B5B69A74A43F400335361A54B1B68A44A43F0B2
S32D00010D1008031360A24B5B69A14A43F0080353619E4B1B689D4A43F0080313609A4B4FF480725A62984B4FF4A8
S32D00010D3880721A62954B4FF480721A61934B4FF480725A61914B4FF480729A618F4B4FF48072DA618D4B4FF44F
S32D00010D6080721A638B4B4FF480725A63894B4FF480729A63874B4FF48072DA63854B4FF480721A64834B4FF44F
S32D00010D8880725A64814B4FF480729A647F4B4FF48072DA64814B4FF480721A607F4B4FF480729A607D4B4FF4D1
S32D00010DB08072DA607B4B4FF480721A61784B5B69774A43F440735361744B5B69734A43F47F2343F0F003536199
S32D00010DD8734B5B69724A43F01D035361E221786800F02EFE1D21786800F0D0FE0221786800F0CCFE042178680A
S32D00010E0000F0C8FEE021786800F01EFE0121786800F0C0FE6420FFF72BF8E021786800F013FE0321786800F0FD
S32D00010E28B5FE0121786800F00BFE0120FFF71CF8E621786800F004FE0121786800F0A6FEA021786800F0A2FE22
S32D00010E50FF21786800F09EFEB021786800F0F4FD1C21786800F096FE0F21786800F092FE0121786800F08EFEA6
S32D00010E783F21786800F08AFE0021786800F086FEEF21786800F082FE0021786800F07EFEB421786800F0D4FDDB
S32D00010EA00121786800F076FE9921786800F072FE0021786800F06EFE4521786800F06AFE0221786800F066FE71
S32D00010EC80021786800F062FE0021786800F05EFE0021786800F05AFEB621786800F0B0FD0121786800F052FE7E
S32D00010EF00921786800F04EFE0021786800F04AFE0E21786800F046FE0221786800F042FE0021786800F03EFEB1
S32D00010F180021786800F03AFEBA21786800F090FD0F21786800F032FE6420FEF79DFF3A21786800F085FD6021D6
S32D00010F40786800F027FE2A21786800F07DFD0021786800F01FFE0021786800F01BFE0121786800F017FE3F2179
S32D00010F68786800F013FE2B21786800F069FD0021786800F00BFE0021786800F007FE0021786800F003FEEF2105
S32D00010F9078680BE000B0044000A0044080F00F4040F00F4000C00440C0F00F4000F0F2FD3621786800F048FD03
S32D00010FB80021786800F0EAFDF021786800F040FD0421786800F0E2FDB821786800F038FD0F21786800F0DAFD8B
S32D00010FE00121786800F0D6FD314B1B68304A43F0080313606420FEF73BFF3621786800F023FD0021786800F008
S32D00011008C5FDF021786800F01BFD0421786800F0BDFD0121786800F0BCF91E226F21786800F082F8AF22562146
S32D00011030786800F0DBF80021786800F00AFA012301221C49786800F02BFA2921786800F0FBFC6420FEF70CFFC3
S32D00011058BE21786800F0F4FC0E21786800F096FDF021786800F092FD0121786800F08EFD0021786800F08AFDD3
S32D000110800021786800F086FD0F21786800F082FD786800F028FA0121786800F0DAF90021786800F0AFF900BF3F
S32D000110A80837BD4680BD00BF40F00F4074D3010080B582B000AF78607B680022DA617B6801221A627B680E2251
S32D000110D05A607B681A229A607B6800225A617B6800229A617B684FF4A072DA607B68F0221A617B6800221A70ED
S32D000110F8786801F07FFA7B6818460837BD4680BD80B582B000AF7860064B1B78002B05D1044B01221A70786810
S32D00011120FFF7C2FD00BF0837BD4680BD041B002080B58AB002AFF860B9607A607E23009362237A68B968F868E7
S32D0001114800F013FF40F24E733B610023FB61FA693B699A4240DA0023BB61214AFB6913441B781A46BB6993421A
S32D0001117032DAFB6901331C4AD35C002B06D1FF23FB75FF23BB75FF237B7512E0FB690133154AD35C012B06D104
S32D00011198D423FB750023BB7526237B7505E0B523FB75BA23BB75B0237B757B7DBA7DF97DF86800F0C9F802463A
S32D000111C0FB68DA61F86801F019FAF86801F052F9BB690133BB61C4E7FB690233FB61BAE700BF2037BD4680BD57
S32D000111E81400002080B58AB002AFF860B9607A602723009395237A68B968F86800F0B5FE40F2E6333B61002394
S32D00011210FB61FA693B699A4240DA0023BB61214AFB6913441B781A46BB69934232DAFB6901331C4AD35C002BA1
S32D0001123806D1FF23FB75FF23BB75FF237B7512E0FB690133154AD35C012B06D10023FB750023BB7500237B75A6
S32D0001126005E0D423FB750023BB7526237B757B7DBA7DF97DF86800F06BF80246FB68DA61F86801F0BBF9F868E4
S32D0001128801F0F4F8BB690133BB61C4E7FB690233FB61BAE700BF2037BD4680BD6407002080B485B000AF7860D4
S32D000112B00B46FB70FB78062B29D801A252F823F0E5120100DD120100EB120100F3120100FB120100011301009F
S32D000112D8091301006FF07F43FB6014E00023FB6011E04FF47F03FB600DE04FF47F43FB6009E0FF23FB6006E032
S32D000113004FF41903FB6002E0044BFB6000BFFB6818461437BD4680BC704700BF9999990080B584B000AF78603D
S32D0001132839603B681B0CFB733B681B0ABB733B687B737B7BBA7BF97B786800F005F8034618461037BD4680BDA4
S32D0001135080B487B000AF7860084611461A460346FB700B46BB7013467B70FB789B08DBB27B61BB789B08DBB221
S32D000113783B617B789B08DBB2FB607B691A033B699B011A43FB68134318461C37BD4680BC704780B582B000AF18
S32D000113A078600B46FB70FB7819467868FFF77CFF03461946786800F004F800BF0837BD4680BD80B582B000AF9F
S32D000113C87860396039687868FFF7A6FF02467B681A62786801F00EF9786800F06FFC00BF0837BD4680BD80B53C
S32D000113F082B000AF7860786800F064FC00BF0837BD4680BD80B582B000AF78600B46FB70FB7819467868FFF755
S32D0001141847FF03461946786800F004F800BF0837BD4680BD80B582B000AF7860396039687868FFF771FF0246F7
S32D000114407B681A62786801F0D9F800BF0837BD4680BD80B582B000AF78600B46FB70FB7819467868FFF720FFCD
S32D0001146803461946786800F004F800BF0837BD4680BD80B582B000AF7860396039687868FFF74AFF02467B6831
S32D00011490DA61786801F0B2F800BF0837BD4680BD80B586B000AFF860B9607A603B6000237B617B69BA681344DD
S32D000114B81B78002B0FD07B69BA6813441B783A687968F86800F090FE7B680C337B607B6901337B61E9E700BF97
S32D000114E01837BD4680BD80B582B000AF7860FCF7DFFF67210120FCF74AFF00210220FCF746FFA0210320FCF758
S32D0001150842FF50210420FCF73EFF20210520FCF73AFF20210620FCF736FF77210720FCF732FF00210820FCF76E
S32D000115302EFF00210920FCF72AFF00210A20FCF726FF04210B20FCF722FF7B684FF0FF32DA637B684FF0FF324F
S32D000115581A6400BF0837BD4680BD00000000000080B586B000AFF860B9607A600020FCF72CFF0346FB75FB7DD4
S32D0001158003F00203002B00F0CE80FCF73FFFE020FCF7F0FE0220FEF76BFCFCF745FF0120FEF766FCFCF732FF78
S32D000115A8A520FCF7E3FE0120FEF75EFCFCF705FF03469BB21B02BB82FCF7FFFE03469AB2BB8A1343BB82FCF7D4
S32D000115D0F8FE03469BB21B027B82FCF7F2FE03469AB27B8A13437B82BB8A1B09BB827B8A1B097B82FCF718FFA0
S32D000115F8FB68DB6BB3F1FF3F34D1FB681B6CB3F1FF3F2FD1BA8AFB68DA637A8AFB681A647B8AC3F57F630F33BE
S32D000116207B82BB8A184604F03BFB49A3D3E9002304F0A0FB02460B461046194604F07CFE0246BB681A607B8AD1
S32D00011648184604F029FB42A3D3E9002304F08EFB02460B461046194604F06AFE02467B681A605AE0FB68DA6B8B
S32D00011670BB8AD31A1946F86800F0D0F80346632B0CDCFB681A6C7B8AD31A1946F86800F0C5F80346632B01DCE8
S32D00011698012300E00023002B2FD0BA8AFB68DA637A8AFB681A647B8AC3F57F630F337B82BB8A184604F0F0FAAA
S32D000116C023A3D3E9002304F055FB02460B461046194604F031FE0246BB681A607B8A184604F0DEFA1CA3D3E912
S32D000116E8002304F043FB02460B461046194604F01FFE02467B681A600FE0BB68164A1A607B68154A1A60FB686F
S32D000117104FF0FF32DA63FB684FF0FF321A64002310E001230EE0BB680D4A1A607B680C4A1A60FB684FF0FF320D
S32D00011738DA63FB684FF0FF321A64002318461837BD4680BDAFF30080144001144001B43F1EE0011EE001AE3F3A
S32D00011760000080BF80B588B000AFF860B9607A6007F1140207F1180319462648FFF7F4FE0346FB77BB694FF0C0
S32D000117880001184605F0EEF80346002B10D0BB69184604F093FA4FF000021D4B04F030F902460B46104619468D
S32D000117B004F07AFD034604E0BB69184605F0E0F80346BA6813607B694FF00001184605F0CDF80346002B10D0B5
S32D000117D87B69184604F072FA4FF000020C4B04F00FF902460B461046194604F059FD034604E0BB69184605F070
S32D00011800BFF803467A681360FB7F18462037BD4680BD00BFC01A00200000E03F80B483B000AF786039603B68F3
S32D00011828002B02DA3B685B423B603B6818460C37BD4680BC704780B584B000AF786039600023FB60786800F09E
S32D00011850FCFAFB683A6813441B78002B12D07B6859697B689869FB683A6813441B780246786800F0A3FC786868
S32D0001187800F0FBFAFB680133FB60E6E700BF1037BD4680BD80B590B000AF7860396007F10C033A68064918466C
S32D000118A006F0FEF807F10C0319467868FFF7C7FF00BF4037BD4680BD80D3010080B592B000AF786039604FF08B
S32D000118C80001386805F044F80346002B1FD0386805F052F803467B64786C04F033FE03461946386804F078FDFB
S32D000118F003461F49184604F07DFE0346184605F03FF803463B6407F10C003B6C7A6C194906F0C6F822E03B6844
S32D0001191883F000433B60386805F02EF803467B64786C04F00FFE03461946386804F054FD03460D49184604F009
S32D0001194059FE0346184605F01BF803463B6407F10C003B6C7A6C084906F0A2F807F10C0319467868FFF76BFF72
S32D0001196800BF4837BD4680BD00007A4490D3010084D3010080B582B000AF78600B46FB70786800F05EFA7B68A3
S32D0001199059697B689A69FB78786800F00FFC786800F067FA00BF0837BD4680BD80B582B000AF7860396078685C
S32D000119B800F047FA39687868FFF73DFF786800F02BFA00BF0837BD4680BD80B582B000AF78603960786800F092
S32D000119E034FA39687868FFF751FF786800F018FA00BF0837BD4680BD80B582B000AF78603960786800F021FA51
S32D00011A0839687868FFF756FF786800F005FA00BF0837BD4680BD80B582B000AF78600B46FB70786800F00DFA55
S32D00011A30FB7819467868FFF7A1FF786800F0F0F900BF0837BD4680BD80B483B000AF78600B46FB704D4B1B6883
S32D00011A584C4A23F0080313604B4B1B684A4A23F480231360484B1B68474A43F480331360454B1B68444A23F4A2
S32D00011A8040731360414B1B68404A23F4435323F0300313603E4B1A68FB785B0203F400733B4913430B603A4B03
S32D00011AA81A68FB785B101B0203F48073364913430B60344B1A68FB789B101B0103F01003304913430B602F4B73
S32D00011AD01A68FB78DB105B0103F020032B4913430B602A4B1A68FB781B119B0103F04003264913430B60254B58
S32D00011AF81A68FB785B11DB01DBB2224913430B60204B1A68FB789B111B0303F480531D4913430B601B4B1A68C6
S32D00011B2097F90330DB115BB25B0303F40053174913430B60164B1B68154A23F400331360134B1B68124A43F49D
S32D00011B48003313600F4B1B680E4A43F0080313600D4B1B680C4A43F440731360094B1B68084A43F4435343F02B
S32D00011B7030031360064B1B68054A43F48023136000BF0C37BD4680BC704700BF80F00F4040F00F4080B483B0D4
S32D00011B9800AF78600B46FB70464B1B68454A23F008031360444B1B68434A43F480331360414B1B68404A43F4DB
S32D00011BC0802313603E4B1B683D4A23F4407313603A4B1B68394A23F4435323F030031360374B1A68FB785B024B
S32D00011BE803F40073344913430B60334B1A68FB785B101B0203F480732F4913430B602D4B1A68FB789B101B01D4
S32D00011C1003F01003294913430B60284B1A68FB78DB105B0103F02003244913430B60234B1A68FB781B119B014E
S32D00011C3803F040031F4913430B601E4B1A68FB785B11DB01DBB21B4913430B60194B1A68FB789B111B0303F4AC
S32D00011C608053164913430B60144B1A6897F90330DB115BB25B0303F40053104913430B600F4B1B680E4A23F4B7
S32D00011C88003313600C4B1B680B4A43F400331360084B1B68074A43F008031360064B1B68054A23F48023136053
S32D00011CB000BF0C37BD4680BC704700BF80F00F4040F00F4080B586B000AF78607B6800225A617B6800229A615E
S32D00011CD87B681B6AFB60FB68FB72FB681B0ABB72FB681B0CDBB203F003037B722A217868FFF7A6FE00217868D2
S32D00011D00FFF748FF00217868FFF744FF01217868FFF740FF3F217868FFF73CFF2B217868FFF792FE00217868E2
S32D00011D28FFF734FF00217868FFF730FF00217868FFF72CFFEF217868FFF728FF2C217868FFF77EFE314B1B6870
S32D00011D50304A23F4407313602F4B1B682E4A23F47F2323F0F00313602C4B1B682B4A23F01D031360274B1A68FD
S32D00011D787B681B6B254913430B60254B1A687B685B6B234913430B60224B1A687B689B6B204913430B601E4B71
S32D00011DA01B681D4A23F0080313601A4B1B68194A43F48023136000237B617B69EF2B19D800233B613B69B3F508
S32D00011DC8A07F0FD2114B1B68104A23F4003313600E4B1B680D4A43F4003313603B6901333B61EBE77B69013388
S32D00011DF07B61E2E7084B1B68074A43F008031360044B1B68034A23F48023136000BF1837BD4680BD40F00F402E
S32D00011E1880F00F40C0F00F4080B483B000AF78607B689B69002B07DD7B685B695A1C7B685A617B6800229A613E
S32D00011E4000BF0C37BD4680BC704780B582B000AF78607B685A697B685B689A4205DB7B6800225A617868FFF7EF
S32D00011E682DFF00BF0837BD4680BD80B582B000AF78607B689B695A1C7B689A617B689A697B689B689A4205D13A
S32D00011E907868FFF7C5FF7868FFF7D7FF00BF0837BD4680BD80B586B002AFF860B9607A600123009301237A687B
S32D00011EB8B968F86800F059F8F86800F0D7FA00BF1037BD4680BD80B485B000AF786039607B681B68FB603B68E5
S32D00011EE01A687B681A603B68FA681A6000BF1437BD4680BC704780B586B002AFF860B9607A603B60BA683B68AE
S32D00011F081A447B68009313467A68B968F86800F0ABF8BA683B68D118BA683B68D0187A68BB69134400930346F3
S32D00011F307A68F86800F09CF8BA683B68D1187A68BB69D0187A68BB6913440093BB680246F86800F08DF87A680E
S32D00011F58BB691A447B680093BB68B968F86800F083F800BF1037BD4680BD80B588B000AFF860B9607A603B600B
S32D00011F80FB681B78022B03D0FB681B78032B11D17B68FB61BA6AFB691344013BBB61FB68DA68BB68D31A3B616F
S32D00011FA83B683A69D31A01337B610DE0BB68FB613A68FB691344013BBB617B687B61BA6A7B691344013B3B61B0
S32D00011FD02A21F868FFF738FDFB691B0ADBB203F00F03DBB21946F868FFF7D4FDFB69DBB21946F868FFF7CEFD6D
S32D00011FF8BB691B0ADBB203F00F03DBB21946F868FFF7C4FDBB69DBB21946F868FFF7BEFD2B21F868FFF714FD08
S32D000120207B691B0ADBB203F00F03DBB21946F868FFF7B0FD7B69DBB21946F868FFF7AAFD3B691B0ADBB203F0F1
S32D000120480F03DBB21946F868FFF7A0FD3B69DBB21946F868FFF79AFD2C21F868FFF7F0FC00BF2037BD4680BD16
S32D0001207090B58BB000AFF860B9607A603B603A68BB68D31A1946F868FFF7C8FBF861BA6B7B68D31A1946F868F5
S32D00012098FFF7C0FBB861BA69FB699A42CCBF01230023FB75FB7D002B0CD03A1D07F1080311461846FFF707FF20
S32D000120C03B4607F138011846FFF701FFBA683B689A420CDD3A4607F1080311461846FFF7F6FE3B1D07F13801B6
S32D000120E81846FFF7F0FE3A68BB689A4206D1BB687A681946F868FFF7D1FE55E0BA6B7B68D31A184604F01EFAF2
S32D0001211004463A68BB68D31A184604F017FA03461946204604F01AFB03463B617B68184604F00CFA03467B62E4
S32D00012138BB683B623B683A6A9A4235DCFB7D002B14D0786A03F0BAFD4FF00002184B03F057FC02460B46104698
S32D00012160194604F0A1F803463A6A1946F868FFF799FE13E0786A03F0A5FD4FF000020E4B03F042FC02460B465D
S32D000121881046194604F08CF803461A46396AF868FFF784FE3969786A04F020F903467B623B6A01333B62C5E7FE
S32D000121B02C37BD4690BD00BF0000E03F80B584B000AFF860B9607A60FB707A6813465B0013449B00991CBA6842
S32D000121D813461B011344DA1CFB78F86800F004F800BF1037BD4680BD80B58EB002AFF860B9607A60FB70FB78C4
S32D000122000A2B06D1F868FFF720FEF868FFF708FEF2E0FB787D2B02D8FB781F2B01D82023FB70FB78203BFB708F
S32D00012228112300930C237A68B968F868FFF79DFEFA7813469B0013446F4AD35C3B75FA7813469B001344013357
S32D000122506B4AD35C7B75FA7813469B0013440233674AD35CBB75FA7813469B0013440333634AD35CFB75FA78D8
S32D0001227813469B00134404335F4AD35C3B760023BB62BB6A062B00F3A180F86800F050F9F86800F0B3F80023CB
S32D000122A087F82F3000237B627B6A042B35DC07F114027B6A13441B7803F00103002B14BF01230023FB76FB7E09
S32D000122C8002B11D097F82F3083F00103DBB2002B03D0F86800F0CAF802E0F86800F08EF8F86800F08BF80DE061
S32D000122F097F82F30002B03D0F86800F01DF902E0F86800F07FF8F86800F07CF8FB7E87F82F307B6A01337B62B3
S32D00012318C6E797F82F30002B03D0F86800F008F902E0F86800F06AF8F86800F067F8002387F82F3000233B62A8
S32D000123403B6A042B42DC07F114023B6A13441B7803F00103002B14BF01230023BB76BB7E002B11D097F82F303F
S32D0001236883F00103DBB2002B03D0F86800F07EF802E0F86800F042F8F86800F03FF80DE097F82F30002B03D0B2
S32D00012390F86800F0D1F802E0F86800F033F8F86800F030F8BB7E87F82F3007F114023B6A13441B785B08D9B28E
S32D000123B807F114023B6A13440A461A703B6A01333B62B9E7BB6A0133BB625AE7F86800F0AFF8002387F82F304D
S32D000123E00123FB61FB69232B06DCF86800F00AF8FB690133FB61F5E73037BD4680BD00BF4C0B002080B483B054
S32D0001240800AF7860174B1B68164A43F480331360154B1B68144A23F008031360114B1B68104A43F48023136024
S32D000124300E4B1B680D4A23F4003313600B4B1B680A4A43F400331360094B1B68084A43F008031360054B1B68D6
S32D00012458044A23F48023136000BF0C37BD4680BC704700BF40F00F4080F00F4080B483B000AF78602B4B1B68FE
S32D000124802A4A43F480331360294B1B68284A23F008031360254B1B68244A43F480231360224B1B68214A23F442
S32D000124A840731360204B1B681F4A23F47F2323F0F00313601D4B1B681C4A23F01D031360184B1A687B685B6AD2
S32D000124D0164913430B60164B1A687B689B6A144913430B60134B1A687B68DB6A114913430B600E4B1B680D4A7E
S32D000124F823F4003313600B4B1B680A4A43F400331360094B1B68084A43F008031360054B1B68044A23F4802339
S32D00012520136000BF0C37BD4680BC704740F00F4080F00F40C0F00F4080B483B000AF78602B4B1B682A4A43F452
S32D0001254880331360294B1B68284A23F008031360254B1B68244A43F480231360224B1B68214A23F440731360FE
S32D00012570204B1B681F4A23F47F2323F0F00313601D4B1B681C4A23F01D031360184B1A687B681B6B16491343B9
S32D000125980B60164B1A687B685B6B144913430B60134B1A687B689B6B114913430B600E4B1B680D4A23F400339E
S32D000125C013600B4B1B680A4A43F400331360094B1B68084A43F008031360054B1B68044A23F48023136000BF88
S32D000125E80C37BD4680BC704740F00F4080F00F40C0F00F4080B485B000AF78607B681B6AFB60FB68FB72FB6868
S32D000126101B0ABB72FB681B0CDBB203F003037B727B6800225A627B6800229A627B680022DA627B6800221A63C7
S32D000126387B6800225A637B6800229A637B681A6BFB7A5B0203F400731A437B681A637B681A6BFB7A5B101B02E9
S32D0001266003F480731A437B681A637B685A6BFB7A9B101B0103F010031A437B685A637B685A6BFB7ADB105B0159
S32D0001268803F020031A437B685A637B685A6BFB7A1B119B0103F040031A437B685A637B685A6BFB7A5B11DB0193
S32D000126B0DBB21A437B685A637B685A6BFB7A9B111B0303F480531A437B685A637B685A6B97F90B30DB115BB257
S32D000126D85B0303F400531A437B685A637B685A6BBB7A9B0303F480431A437B685A637B685A6BBB7A5B10DB03D6
S32D000127009BB21A437B685A637B685A6BBB7A9B101B0403F480331A437B685A637B685A6BBB7ADB105B0403F4F4
S32D0001272800331A437B685A637B685A6BBB7A1B119B0403F480231A437B685A637B685A6BBB7A5B11DB0403F4F4
S32D0001275000231A437B685A637B689A6BBB7A9B1103F001031A437B689A637B689A6B97F90A30DB115BB29B00F7
S32D0001277803F004031A437B689A637B689A6B7B7ADB0003F008031A437B689A637B689A6B7B7A5B101B0103F0B1
S32D000127A010031A437B689A637B68DB69FB60FB68FB72FB681B0ABB72FB681B0CDBB203F003037B727B685A6A0F
S32D000127C8FB7A5B0203F400731A437B685A627B685A6AFB7A5B101B0203F480731A437B685A627B689A6AFB7AC4
S32D000127F09B101B0103F010031A437B689A627B689A6AFB7ADB105B0103F020031A437B689A627B689A6AFB7A60
S32D000128181B119B0103F040031A437B689A627B689A6AFB7A5B11DB01DBB21A437B689A627B689A6AFB7A9B11E2
S32D000128401B0303F480531A437B689A627B689A6A97F90B30DB115BB25B0303F400531A437B689A627B689A6ACF
S32D00012868BB7A9B0303F480431A437B689A627B689A6ABB7A5B10DB039BB21A437B689A627B689A6ABB7A9B10C3
S32D000128901B0403F480331A437B689A627B689A6ABB7ADB105B0403F400331A437B689A627B689A6ABB7A1B1100
S32D000128B89B0403F480231A437B689A627B689A6ABB7A5B11DB0403F400231A437B689A627B68DA6ABB7A9B11B7
S32D000128E003F001031A437B68DA627B68DA6A97F90A30DB115BB29B0003F004031A437B68DA627B68DA6A7B7A3F
S32D00012908DB0003F008031A437B68DA627B68DA6A7B7A5B101B0103F010031A437B68DA6200BF1437BD4680BCDD
S32D00012930704780B483B000AF78607B6818460C37BD4680BC704780B584B000AFF860B9607A603B60FB682033A5
